:100000000C94CD000C94F5000C94F5000C94F500C4
:100010000C94F5000C94F5000C94F5000C94F60982
:100020000C94F5000C94F5000C94F5000C94F5007C
:100030000C9497090C94F5000C94F5000C94F500C1
:100040000C942E080C94F5000C94FC070C94D60725
:100050000C94F5000C94F5000C94F5000C94F5004C
:100060000C9478080C94F50073656E736F72200021
:100070002073657420617420007475726E6F7574DE
:10008000200000000000240027002A0073656E7322
:100090006F727320696E697469616C697A65640056
:1000A00000000000250028002B006E657874207386
:1000B0006572766F00446F776E20627574746F6E30
:1000C00020697320707265737365640055702062D7
:1000D0007574746F6E2069732070726573736564D4
:1000E000000000000023002600290004040404048A
:1000F00004040402020202020203030303030301D5
:1001000002040810204080010204081020010204AB
:10011000081020000000080002010000030407008E
:1001200000000000000000545241434B20504F5744
:10013000455220454E41424C454400545241434BA8
:1001400020504F5745522044495341424C454400AA
:10015000207472616E736974696F6E696E672E2E9A
:100160002E20002050574D204D4F444520454E41F4
:10017000424C45442000204449474954414C204DBD
:100180004F444520454E41424C45442C2041444477
:10019000524553533A200000860A11241FBECFEF68
:1001A000D8E0DEBFCDBF12E0A0E0B1E0E2ECF5E2C6
:1001B00002C005900D92A43EB107D9F725E0A4EE48
:1001C000B2E001C01D92A53CB207E1F710E0CDEC12
:1001D000D0E004C02197FE010E94CD12CC3CD10793
:1001E000C9F70E94CA0A0C94DF120C940000909187
:1001F0000E059111FCCF91E090930E0590930D05A3
:100200002FEF20930C0510920B05260F20930A0563
:100210009093090590910905880F892B8093090512
:10022000809108058130F9F4109208058091090544
:100230008093BB008091BC0083FDF8CF85EC809358
:10024000BC0080910E058130E1F380910B0586178B
:1002500010F460910B05A8EEB4E0E8ECF4E080E067
:10026000861303C0089585EEEACF9D9191938F5F29
:10027000F7CF08950895AF92BF92CF92DF92EF9299
:10028000FF920F931F93CF93DF936C017B018B0140
:10029000040F151FEB015E01AE18BF08C017D10790
:1002A00059F06991D601ED91FC910190F081E02D1A
:1002B000C6010995892B79F7C501DF91CF911F916F
:1002C0000F91FF90EF90DF90CF90BF90AF90089587
:1002D000FC01538D448D252F30E0842F90E0821B4C
:1002E000930B541710F0CF96089501970895FC01D1
:1002F000918D828D981761F0A28DAE0FBF2FB11D29
:100300005D968C91928D9F5F9F73928F90E0089580
:100310008FEF9FEF0895FC01918D828D981731F03A
:10032000828DE80FF11D858D90E008958FEF9FEF8E
:100330000895FC01918D228D892F90E0805C9F4F64
:10034000821B91098F73992708958FE095E00E9491
:10035000990121E0892B09F420E0822F089580E0A3
:1003600090E0892B29F00E94A50181110C940000D6
:100370000895FC01A48DA80FB92FB11DA35ABF4F3A
:100380002C91848D90E001968F739927848FA68994
:10039000B7892C93A089B1898C91837080648C93E8
:1003A000938D848D981306C00288F389E02D808197
:1003B0008F7D80830895EF92FF920F931F93CF93C9
:1003C000DF93EC0181E0888F9B8D8C8D98131AC090
:1003D000E889F989808185FF15C09FB7F894EE8977
:1003E000FF896083E889F9898081837080648083D4
:1003F0009FBF81E090E0DF91CF911F910F91FF901F
:10040000EF900895F62E0B8D10E00F5F1F4F0F73C6
:100410001127E02E8C8D8E110CC00FB607FCFACF81
:10042000E889F989808185FFF5CFCE010E94B90165
:10043000F1CFEB8DEC0FFD2FF11DE35AFF4FF08252
:100440009FB7F8940B8FEA89FB8980818062CFCFB8
:100450000F931F93CF93DF938C01D0E0C0E0F8019E
:10046000EC0FFD1F6491662341F08FE095E00E9440
:10047000DB01892B11F02196F2CFCE01DF91CF91D4
:100480001F910F910895CF93DF93EC01888D8823FE
:10049000B9F0AA89BB89E889F9898C9185FD03C0E7
:1004A000808186FD0DC00FB607FCF7CF8C9185FFCC
:1004B000F2CF808185FFEDCFCE010E94B901E9CF57
:1004C000DF91CF910895833081F028F4813099F045
:1004D0008230A9F008958730A9F08830C9F08430BF
:1004E000B1F4809180008F7D03C0809180008F7770
:1004F00080938000089584B58F7784BD089584B576
:100500008F7DFBCF8091B0008F778093B0000895EE
:100510008091B0008F7DF9CF1F93CF93DF93282F69
:1005200030E0F901ED5EFE4F8491F901E150FF4F9B
:10053000D491F901E551FF4FC491CC23A9F0162FB6
:1005400081110E946302EC2FF0E0EE0FFF1FE056D6
:10055000FF4FA591B4918FB7F894EC91111108C099
:10056000D095DE23DC938FBFDF91CF911F9108954B
:10057000DE2BF8CFCF93DF9390E0FC01E150FF4FEB
:10058000249185519F4FFC0184918823D1F090E004
:10059000880F991FFC01EE57FF4FA591B491FC0104
:1005A000E056FF4FC591D49161110EC09FB7F894EA
:1005B0008C91E22FE0958E238C932881E223E883AF
:1005C0009FBFDF91CF9108958FB7F894EC91E22B04
:1005D000EC938FBFF6CF8E50806480937C00809127
:1005E0007A00806480937A0080917A0086FDFCCF47
:1005F000809178009091790008953FB7F8948091A8
:10060000660390916703A0916803B091690326B5D2
:10061000A89B05C02F3F19F00196A11DB11D3FBF3A
:10062000BA2FA92F982F8827BC01CD01620F711D09
:10063000811D911D42E0660F771F881F991F4A9503
:10064000D1F708958F929F92AF92BF92CF92DF928F
:10065000EF92FF924B015C010E94FD026B017C0155
:100660000E94FD026C197D098E099F09683E734046
:1006700081059105A8F321E0821A9108A108B1082B
:1006800088EEC80E83E0D81EE11CF11C8114910491
:10069000A104B10429F7FF90EF90DF90CF90BF90B5
:1006A000AF909F908F90089585ED8093BC008091CE
:1006B000BC0084FDFCCF10920E05089520913E03EE
:1006C000260F3327331F21323105ECF420910E051C
:1006D000FC0190E080E0243069F082E00895A09170
:1006E0003E032191AC01425E5C4FA40FB52FB11DBA
:1006F0002C930196861798F380913E03680F6093C0
:100700003E0380E0089581E0089510920E0581E097
:1007100080930D051092080561E082E10E948C0231
:1007200061E083E10E948C02E9EBF0E080818E7F42
:10073000808380818D7F808388E48093B80085E406
:100740008093BC0008950895E091C3048091C20491
:10075000E81730F4F0E0E853FB4F808190E0089513
:100760008FEF9FEF08959091C3048091C2042FEF03
:100770003FEF981748F4E92FF0E0E853FB4F208152
:1007800030E09F5F9093C304C90108958091C20433
:100790009091C304891B990B0895CF92DF92EF9239
:1007A000FF920F931F93CF93DF937C01CB018A01BC
:1007B0002091C704222389F0EB016B01C40ED51EE2
:1007C000CC15DD0569F06991D701ED91FC9101909F
:1007D000F081E02DC7010995F3CF642F0E945E03DD
:1007E000C801DF91CF911F910F91FF90EF90DF90A3
:1007F000CF900895CF93DF931F92CDB7DEB7698373
:100800002091C7042223F9F02091C404203258F02B
:1008100021E030E0FC013383228390E080E00F9000
:10082000DF91CF9108958091C504E82FF0E0E25068
:10083000FD4F998190838F5F8093C5048093C4049A
:1008400081E090E0ECCF61E0CE0101960E945E0372
:10085000F7CF2091C40481E0213208F044C0809198
:100860000E058111FCCF8091C60492E090930E0595
:1008700091E090930D059FEF90930C0510920B055E
:1008800020930A05AEEFB2E0E8EEF4E090E0291321
:1008900031C01092090590910905880F892B80932A
:1008A000090580910805813049F51092080580916D
:1008B00009058093BB008091BC0083FDF8CF85ECD7
:1008C0008093BC0080910E058230E1F380910C058D
:1008D0008F3FB1F080910C058032A1F080910C0522
:1008E000803391F084E01092C5041092C4041092F9
:1008F000C70408953D9131939F5FC9CF85EEE0CF46
:1009000080E0F1CF82E0EFCF83E0EDCF1F93CF9374
:10091000DF93162FC8EBD5E0A981BA81988121E039
:100920002093C7049093C6041092C5041092C40487
:10093000ED91FC9111970190F081E02D682FCD0190
:10094000099589819A81DC01ED91FC910190F081FA
:10095000E02D612F099589819A81DF91CF911F91B7
:100960000C94290490E080E00895DC01ED91FC9165
:100970000190F081E02D0994FC0101900020E9F73D
:100980003197AF01481B590BBC018FE095E00C94E7
:100990003B018F929F92AF92BF920F931F93CF9381
:1009A000DF93CDB7DEB7A1970FB6F894DEBF0FBEC9
:1009B000CDBF19A2423008F44AE08E010F5D1F4FEF
:1009C000842E912CB12CA12CA50194010E942F10F2
:1009D000E62FB901CA01EA30F4F4E05DD801EE93E4
:1009E0008D01232B242B252B79F790E080E01097A5
:1009F00019F0CD010E94BC04A1960FB6F894DEBF99
:100A00000FBECDBFDF91CF911F910F91BF90AF90DF
:100A10009F908F900895E95CE1CFCF92DF92EF92A3
:100A2000FF92CF93DF936B017C016DE28FE095E045
:100A30000E94DB01EC0166277727CB016C197D0949
:100A40008E099F094AE00E94C9048C0F9D1FDF9107
:100A5000CF91FF90EF90DF90CF900895CF93DF93E9
:100A60000E94BC04EC0189EB91E00E94BC048C0F55
:100A70009D1FDF91CF910895CF93DF930E942802AD
:100A8000EC0189EB91E00E94BC048C0F9D1FDF916B
:100A9000CF9108951F93CF93DF938091F602811138
:100AA0007BC080916F03811177C083E280936F03D5
:100AB0008091F4028F5F8830A9F08093F402109146
:100AC000F402C12FD0E0183040F5FE01E659FA4F8C
:100AD0000C94CD1275057B058105B905C305C505C7
:100AE000C705C9051092F402EACF60E085E00E94D4
:100AF0008C0261E00BC060E085E00E948C0260E047
:100B00003DC060E085E00E948C0260E086E00E94CB
:100B10008C0260E087E00E948C0280E10E94EB0280
:100B2000FE01EE0FFF1FEC51FD4F208131819183BB
:100B30008083821B930B97FF03C091958195910948
:100B4000CA55DC4F8135910534F181E0888388E610
:100B500090E00E942802612F70E090E080E04AE07F
:100B60000E94C9048CEB91E0DF91CF911F910C940E
:100B70002E0560E085E00E948C0261E086E00E9424
:100B80008C0261E0C7CF61E0BDCF61E0AFCF61E033
:100B9000F1CF61E0B1CF1882DF91CF911F9108951D
:100BA000CF93DF93682F70E090E080E04AE00E94EE
:100BB000C904EC0189EB91E00E94BC048C0F9D1FDD
:100BC000DF91CF9108958F929F92AF92BF92CF9273
:100BD000DF92EF92FF92CF936B017C0120E030E037
:100BE00040E85FE30E94CD1087FDA8C020E030EC14
:100BF0004AE555E4C701B6010E94251218163CF4D7
:100C0000C12C30ECD32E3AE5E32E35E4F32E60917F
:100C1000BB057091BC058091BD059091BE050E94F9
:100C200073114B015C0120E030E040E855E4C7015E
:100C3000B6010E942A129B01AC01C501B4010E94B9
:100C4000D21020E030E040E05FE30E94611020E03D
:100C500030E040E85FE30E9460106B017C0120E01F
:100C600030E040E450E40E94CD1087FD6EC020E0EB
:100C700030E04FE753E4C701B6010E942512181671
:100C800034F4C12CD12C9FE7E92E93E4F92E809106
:100C9000B9059091BA052091B80531E03093C704A9
:100CA0002093C6041092C5041092C404DC01ED9197
:100CB000FC910190F081E02D60E009958091B905EB
:100CC0009091BA050E94290461E08091B8050E94C4
:100CD000F7001092C3048093C2048091B9059091EB
:100CE000BA05DC01ED91FC910284F385E02D0995B4
:100CF000C82F682F6F76606180E00E948604C7016C
:100D0000B6010E9444118EEF0E9486046C2F80E091
:100D10000E94860465E070E080E090E00E9422037B
:100D20006C2F606A80E0CF91FF90EF90DF90CF90C2
:100D3000BF90AF909F908F900C948604C12CD12CC3
:100D400020E8E22E2FE3F22E62CFC12CD12C80E4DA
:100D5000E82EFE2C9CCF2F923F924F925F926F9283
:100D60007F928F929F92AF92BF92CF92DF92EF923B
:100D7000FF920F931F93CF93DF9384E7E82E83E0D6
:100D8000F82E0DE813E0412C512C3201D0E2CC2496
:100D9000C394D12CF70121907F0153014201FFEF51
:100DA0008F1A9F0AAF0ABF0A81E028124BC0F701D1
:100DB00031971082F80132802092C704D093C60484
:100DC0001092C5041092C40462E18CEA95E00E947E
:100DD000FA038CEA95E00E94290461E080E20E9417
:100DE000F7001092C3048093C2048CEA95E00E943D
:100DF000B303C82F2092C7041092C5041092C404F4
:100E000062E18CEA95E00E94FA03B60101C0660F28
:100E10004A94EAF73320A1F16C2B8CEA95E00E940A
:100E2000FA038CEA95E00E94290483EC91E00E9489
:100E3000BC044AE0C501B4010E94C90489EB91E0F9
:100E40000E94BC04240135010D5F1F4FF8E04F16CE
:100E500051046104710409F09DCFDF91CF911F917E
:100E60000F91FF90EF90DF90CF90BF90AF909F9049
:100E70008F907F906F905F904F903F902F9008954C
:100E800060956C23CACFCF92DF92EF92FF921F93AF
:100E9000CF93DF93882321F08150893008F07CC004
:100EA000C82FD0E0FE01EE0FFF1FEC0FFD1FE35730
:100EB000FC4F6283662309F477C01181212F30E053
:100EC000A2E7B1E00E94511024EB30E040E050E096
:100ED0000E94051069017A0188E7C80ED11CE11C47
:100EE000F11C8091B9059091BA052091B80531E0C7
:100EF0003093C7042093C6041092C5041092C40412
:100F0000BE01660F771F660F771F6A5F7F4FDC0198
:100F1000ED91FC910190F081E02D099570E060E089
:100F20008091B9059091BA050E94B50470E060E027
:100F30008091B9059091BA050E94B504B6018091DF
:100F4000B9059091BA050E94B5046D2D70E08091AD
:100F5000B9059091BA050E94B5048091B9059091A8
:100F6000BA050E94290489E790E00E942802BE0188
:100F70006F5F7F4F072E000C880B990B4AE00E9491
:100F8000C90480E790E00E942802812F0E94D005CA
:100F9000CC58DC4F84E68883DF91CF911F91FF907E
:100FA000EF90DF90CF900895108188CF1F920F921D
:100FB0000FB60F9211242F933F934F935F936F932C
:100FC0007F938F939F93AF93BF93EF93FF938FE0A4
:100FD00095E00E94B901FF91EF91BF91AF919F9170
:100FE0008F917F916F915F914F913F912F910F90D2
:100FF0000FBE0F901F9018951F920F920FB60F9271
:1010000011242F938F939F93EF93FF93E0911F05EC
:10101000F09120058081E0912505F091260582FD63
:101020001BC09081809128058F5F8F7320912905C7
:10103000821741F0E0912805F0E0E15FFA4F958FCB
:1010400080932805FF91EF919F918F912F910F90A1
:101050000FBE0F901F9018958081F4CF1F920F92B2
:101060000FB60F9211242F933F938F939F93AF93BB
:10107000BF938091620390916303A0916403B09148
:1010800065033091610323E0230F2D3758F5019656
:10109000A11DB11D209361038093620390936303AC
:1010A000A0936403B09365038091660390916703F6
:1010B000A0916803B09169030196A11DB11D8093B1
:1010C000660390936703A0936803B0936903BF918D
:1010D000AF919F918F913F912F910F900FBE0F90E5
:1010E0001F90189526E8230F0296A11DB11DD2CF9F
:1010F0001F920F920FB60F9211242F933F934F938D
:101100005F936F937F938F939F93AF93BF93EF936F
:10111000FF938091B900887F803609F44AC0F0F5CA
:10112000883209F4A7C018F5803109F49BC0B8F4DF
:10113000882309F4F9C0883009F494C0FF91EF9135
:10114000BF91AF919F918F917F916F915F914F91DF
:101150003F912F910F900FBE0F901F9018958831DF
:1011600009F488C0803251F780930C0514C0803494
:1011700009F49DC040F48033B9F38833F9F68093C5
:101180000C0585ECB0C0803509F485C0883509F4BC
:1011900096C0883499F60E945403D0CF883909F458
:1011A0008CC038F5883729F050F4883611F0803734
:1011B00029F683E080930E051092600357C08838AB
:1011C00009F47BC0803919F0803809F0B7CF8091DD
:1011D0006003803208F071C0E091600381E08E0FFF
:1011E000809360038091BB00F0E0E05CFC4F808363
:1011F0003DC0803B39F0E0F4803A09F479C0883A88
:1012000009F09CCF84E080930E0510923F0310926A
:101210003E03E0917003F0917103099580913E03C4
:1012200081110FC081E080933E0310921E0309C01C
:10123000803C09F4A6CF883C09F4A3CF883B09F091
:101240007DCFE0913F0381E08E0F80933F03F0E07C
:10125000E25EFC4F80818093BB0090913F038091C0
:101260003E0329C0809109058093BB0085EC8093E3
:10127000BC0064CF90910B0580910A05981758F532
:10128000E0910B0581E08E0F80930B05F0E0E851B3
:10129000FB4F8081E9CFE0910B0581E08E0F8093B9
:1012A0000B058091BB00F0E0E851FB4F80839091EB
:1012B0000B0580910A059817C8F285E8D8CFE09110
:1012C0000B0581E08E0F80930B058091BB00F0E051
:1012D000E851FB4F808380910D0581115CCF81E047
:1012E0008093080584EA8093BC0010920E0526CFF7
:1012F00085EC8093BC0010920E05809160038032D3
:1013000030F4E0916003F0E0E05CFC4F108260910B
:10131000600370E0E0917203F091730380E493E066
:101320000995109260030ACF10920C0534CF1F92DA
:101330000F920FB60F9211242F933F934F935F9309
:101340008F939F93EF93FF938BB198E189278BB98C
:101350009091FD0281E089278093FD02913041F157
:10136000E091FB02F091FC028091000190819823B2
:101370004FE953E011F44FE357E050938900409355
:101380008800803411F59091A80491FB222720F960
:1013900030E043E0220F331F4A95E1F721553B4FE0
:1013A000E217F30791F480916F008B7F80936F00B9
:1013B000FF91EF919F918F915F914F913F912F916D
:1013C0000F900FBE0F901F90189590E09595879500
:1013D000009719F080930001EBCF80E88093000123
:1013E0003196F093FC02E093FB02E2CF1F920F9242
:1013F0000FB60F9211248F939F93AF93BF93EF93E8
:10140000FF938091FA028F5F8093FA02E4E7F3E0A2
:101410009191992321F0DF01119791509C9393E0D2
:10142000EC37F907A9F790918C03992329F0909153
:101430008C03915090938C0390916F03992329F022
:1014400090916F03915090936F039091890399232A
:1014500029F0909189039150909389038A3009F083
:101460004AC01092FA028091F9028F5F8093F902CC
:101470009091F802992329F09091F802915090935D
:10148000F8029091F702992329F09091F702915078
:101490009093F7029091BD04992329F09091BD0497
:1014A00091509093BD049091F602992329F0909168
:1014B000F60291509093F6028A30E9F41092F90204
:1014C0008091F5028F5F8093F50290918A039923B2
:1014D00029F090918A03915090938A039091C004CF
:1014E000992329F09091C00491509093C0048A30C0
:1014F00011F41092F502FF91EF91BF91AF919F917E
:101500008F910F900FBE0F901F901895EFE0F5E0B0
:101510001382128288EE93E0A0E0B0E0848395838A
:10152000A683B78329E931E03183208325EC30E0BD
:101530003587248724EC30E03787268720EC30E09D
:10154000318B208B21EC30E0338B228B22EC30E08E
:10155000358B248B26EC30E0378B268B118E128E48
:10156000138E148EECEAF5E0138212828483958345
:10157000A683B7838BEA91E091838083A8EBB5E0E3
:1015800080E48C931296FC93EE93119784E0809301
:10159000C2050895789484B5826084BD84B5816065
:1015A00084BD85B5826085BD85B5816085BD80912E
:1015B0006E00816080936E001092810080918100A6
:1015C000826080938100809181008160809381009E
:1015D000809180008160809380008091B100846060
:1015E0008093B1008091B00081608093B0008091C1
:1015F0007A00846080937A0080917A008260809380
:101600007A0080917A00816080937A0080917A00DC
:10161000806880937A001092C100F8941092B10013
:101620001092B20089EF8093B3008091B000826085
:101630008093B0008091B10081608093B10080916F
:10164000B10082608093B1008091B1008B7F809364
:10165000B100809170008260809370007894E09176
:101660001F05F091200582E08083E0911B05F09139
:101670001C051082E0911D05F0911E0580E180831C
:1016800010922705E0912305F091240586E08083E0
:10169000E0912105F0912205808180618083E091B5
:1016A0002105F0912205808188608083E0912105E9
:1016B000F0912205808180688083E0912105F0917E
:1016C000220580818F7D80831092C3041092C20412
:1016D0001092C5041092C4040E94850389E391E02E
:1016E00090937103809370038AE391E09093730366
:1016F0008093720360E088E00E94BA0260E089E0B3
:101700000E94BA0261E088E00E94BA0261E084E0CF
:101710000E94BA0261E082E00E94BA0261E083E0C6
:101720000E94BA0261E08DE00E94BA0260E080E1AE
:101730000E94BA0260E081E10E94BA0260E085E1A5
:101740000E94BA0260E084E10E94BA0261E087E090
:101750000E94BA0261E086E00E94BA0261E085E080
:101760000E94BA0261E08DE00E94BA02D1E0D093FB
:10177000C704C0E2C093C60460E08CEA95E00E9412
:10178000FA0370E060E08CEA95E00E94B50470E036
:1017900060E08CEA95E00E94B5048CEA95E00E9436
:1017A0002904D093C704C093C6041092C5041092B4
:1017B000C4046CE08CEA95E00E94FA0370E060E0FB
:1017C0008CEA95E00E94B50470E060E08CEA95E058
:1017D0000E94B5048CEA95E00E94290483ED91E013
:1017E0000E942E0568EE73E080E090E00E942203E4
:1017F00044244A9413E0512E612C712C00EC802E6D
:101800000CEF902E0BE9A02EBB24B3941AE0D0E08D
:101810002D2ED0E03D2E80918A03811152C08091FF
:10182000C3059091C405892B09F44BC00E94FD02A9
:10183000C0906B03D0906C03E0906D03F0906E034A
:101840009B01AC012C193D094E095F0969017A0120
:101850002091BF053091C00550E040E0C216D3068C
:10186000E406F50670F160936B0370936C0380934C
:101870006D0390936E0380916A0381110DC0909166
:10188000C105992349F0E091C305F091C405208179
:101890009091C205922B90839091C10589130CC041
:1018A000843650F4E091C305F091C40520819091F5
:1018B000C2059095922390838F5F853698F480932C
:1018C0006A0380918E018F5F80938E01833009F4CB
:1018D00027C258F4813009F4D4C108F4E1C00E9451
:1018E0004A05D0C010926A03ECCF853009F45BC37F
:1018F00008F4C3C2863009F481C38F3F09F0CEC01B
:101900001092C3041092C2041092C5041092C40431
:101910000E94850349E351E05093710340937003A3
:101920008AE391E0909373038093720360E880E010
:101930000E9486046AE070E080E090E00E9422034A
:1019400060E070E08AE794E40E94E3058092BB05C2
:101950009092BC05A092BD05B092BE0560E070E01B
:1019600088E492E40E94E30596E490938D032EE6CA
:1019700020938E0381E080938F03909390032093B4
:101980009103809392032093930390939403809305
:1019900095039093960320939703809398039093D5
:1019A000990320939A0380939B0320939C03909325
:1019B0009D0380939E0320939F039093A0038093A5
:1019C000A103C4E7D3E001E0FF24FA9460E0802F94
:1019D0000E944307F8828881882319F00E94AB0691
:1019E000FACF8AEA90E00E943C056CE271E080E068
:1019F00090E00E9422030F5F2196083039F761E0E2
:101A00008091C2050E94BA028091C20590E0FC015B
:101A1000E551FF4F2491FC01E150FF4FE491E09329
:101A2000C205E22FF0E0EE0FFF1FE056FF4F859159
:101A300094919093C4058093C305C8E0D0E01092C0
:101A40006F030E944A052197D1F71092A6031092C6
:101A5000A7031092A8031092A9031092AA03109250
:101A6000AB031092AC031092AD038CE890E00E949F
:101A70003C0568EC70E080E090E00E94220382E385
:101A800080938A032114310409F4C5CE0E94A50174
:101A9000882309F4BBCE0E940000B8CE10928E01BC
:101AA000809189038111EECF82E380938903809135
:101AB00088038F5F8530B9F18093880385E10E94A8
:101AC000EB02E0918803F0E0EE0FFF1FE258FC4FBD
:101AD00091838083E0918D011E9FF0011124EF5FBF
:101AE000FE4FD381C2818536910500F580917D033B
:101AF0008111C8CF81E080937D038CEC90E00E943F
:101B00003C058091A503813021F460E08D2F0E9477
:101B100043078091A50360E0823009F0B3CF8C2F9A
:101B20000E944307AFCF10928803C8CF84389340F8
:101B3000D0F080917D038111A5CF81E080937D035A
:101B400085EB90E00E943C058091A503813021F453
:101B500061E08D2F0E9443078091A503823009F038
:101B600091CF61E0DCCF809182039091830320913B
:101B7000800330918103280F391F80918403909155
:101B80008503280F391F8091860390918703820F68
:101B9000931F20917E0330917F03820F931F65E096
:101BA00070E00E94A512CB01875991098F319340B3
:101BB00008F068CF10927D039B0150E040E0265969
:101BC000310941095109A6E9B0E00E94241020E240
:101BD00033E040E050E00E94051085EB820F612F5A
:101BE0000E949712819FC02D1124C0937C0382E034
:101BF000C7FD03C0CC2319F081E08093A503809139
:101C0000A5038230B1F560E00E948C0261E083E0C0
:101C10000E948C020C2E000CDD0BD7FF03C0D19567
:101C2000C195D1099C2FC53608F0C4E6C093C10503
:101C300022E39B3098F02C2F30E050E040E02A5017
:101C4000310941095109A2E3B0E00E9424102AE5BC
:101C500030E040E050E00E9405102E5C622F70E002
:101C600080E197E20E94B9127093C0056093BF05AE
:101C700009CF813079F661E082E00E948C0260E059
:101C8000C6CFE7E1F1E08491E3E0F1E0D491EFEE3B
:101C9000F0E0C491CC23A1F181110E946302EC2FEA
:101CA000F0E0EE0FFF1FEF51FF4FA591B4918C9123
:101CB000D82331F180918C03811122C082E080937E
:101CC0008C0381E10E94EB028436910518F489E1CE
:101CD00080938B0380918B03882319F0815080932C
:101CE0008B0380918B0381110BC060E084E00E9424
:101CF0008C028BE391E00E943C0582E380938A038F
:101D000080918A03813009F0BDCE10928A0361E090
:101D100084E00E948C0287E291E00E943C05B2CEF2
:101D2000E0908D01F12C8091A503823009F05CC018
:101D30001E9DE0011F9DD00D1124CF5FDE4FE88175
:101D4000F0E0EA55FC4F8081813009F04DC01082EF
:101D50000A8101508FED91E00E942E058DEE91E0F9
:101D60000E94BC04802F0E94D0050F3F69F0802F95
:101D700090E09C01220F331F820F931FFC01E35759
:101D8000FC4F8281811109C081E092E00E94BC0475
:101D90008E810E94D005CE810AC0813029F581E074
:101DA00092E00E94BC048F810E94D005CF81CC2399
:101DB00009F468CE80E192E00E942E05C0938D0167
:101DC0001C9FE0011124CF5FDE4F8C81682F661FBE
:101DD0006627661F8F770E9443078D81682F661FD5
:101DE0006627661F8F779CCE8091A503813009F00E
:101DF00049CE1E9DE0011F9DD00D1124CF5FDE4F07
:101E0000E981F0E0EA55FC4F8081813009F03ACE5B
:101E100010820B81015080E591E00E9428028DEE36
:101E200091E00E94BC04802F0E94D0050F3F81F0FA
:101E3000802F90E09C01220F331F820F931FFC0123
:101E4000E357FC4F0281802F0E94D005011109C089
:101E500081E092E00E94BC0488850E94D005C8857C
:101E6000A6CF013009F00ECE81E092E00E94BC04C2
:101E700089850E94D005C9859ACF8091BD048111C2
:101E800001CE89E18093BD0484E10E94EB02BC0194
:101E90002091BB043091BC048217930708F4B1C0B1
:101EA000821B7093BC046093BB04813408F4EACDB8
:101EB00090E080E052E0660F771F881F991F5A95C7
:101EC000D1F7A30192010E940510222309F459C001
:101ED000C22F243008F0C3E02C2F2150330BF9011E
:101EE000EE0FFF1FE157FE4FD081D093BA048091CF
:101EF000AC03E82FF0E0E455FC4FD28392E0980F5A
:101F00009093AC038F5FE82FF0E0E455FC4F128212
:101F10008091B9048E5F8093B9048A3F18F184E2FE
:101F200092E00E942E0585E792E00E942E0589EA44
:101F300092E00E942E0560E088E00E948C0264E638
:101F400070E080E090E00E94220361E08DE00E945A
:101F50008C0264E670E080E090E00E94220360E082
:101F60008DE0EBCF86E791E00E9428028D2F0E9442
:101F7000D005C230A9F0C33099F081E08093BE044F
:101F80000BC080916F008B7F80936F0083E691E0A0
:101F90000E943C051092BE0481E08093C10472CD82
:101FA000C093BE04F9CF9091C104992301F190919F
:101FB000C004911167CD8093C00485B190E2892758
:101FC00085B92091BF042F5F2093BF048091BE0488
:101FD00090E00196880F991F2817190609F00CF454
:101FE00051CD1092C1042D981092BF044BCD109387
:101FF000C00485B190E2892785B944CD0E94AB0623
:1020000041CD422F481B842F4CCF052E97FB1EF449
:1020100000940E941C1057FD07D00E942F1007FC4F
:1020200003D04EF40C941C1050954095309521959A
:102030003F4F4F4F5F4F08959095809570956195F4
:102040007F4F8F4F9F4F08950E945110A59F900D75
:10205000B49F900DA49F800D911D11240895A1E2BD
:102060001A2EAA1BBB1BFD010DC0AA1FBB1FEE1F12
:10207000FF1FA217B307E407F50720F0A21BB30B5D
:10208000E40BF50B661F771F881F991F1A9469F7D9
:1020900060957095809590959B01AC01BD01CF0135
:1020A0000895A29FB001B39FC001A39F700D811D31
:1020B0001124911DB29F700D811D1124911D089551
:1020C0005058BB27AA270E9478100C94EB110E944D
:1020D000DD1138F00E94E41120F039F49F3F19F42B
:1020E00026F40C94DA110EF4E095E7FB0C94D4116D
:1020F000E92F0E94FC1158F3BA176207730784078F
:10210000950720F079F4A6F50C941E120EF4E095D4
:102110000B2EBA2FA02D0B01B90190010C01CA01A1
:10212000A0011124FF27591B99F0593F50F4503E4C
:1021300068F11A16F040A22F232F342F4427585F3E
:10214000F3CF469537952795A795F0405395C9F756
:102150007EF41F16BA0B620B730B840BBAF091500E
:10216000A1F0FF0FBB1F661F771F881FC2F70EC0AD
:10217000BA0F621F731F841F48F487957795679580
:10218000B795F7959E3F08F0B0CF9395880F08F06C
:102190009927EE0F9795879508950E94B01108F43E
:1021A00081E008950E94E6100C94EB110E94E41166
:1021B00058F00E94DD1140F029F45F3F29F00C94A3
:1021C000D41151110C941F120C94DA110E94FC11BD
:1021D00068F39923B1F3552391F3951B550BBB2756
:1021E000AA2762177307840738F09F5F5F4F220F9B
:1021F000331F441FAA1FA9F335D00E2E3AF0E0E892
:1022000032D091505040E695001CCAF72BD0FE2FDB
:1022100029D0660F771F881FBB1F2617370748076F
:10222000AB07B0E809F0BB0B802DBF01FF27935827
:102230005F4F3AF09E3F510578F00C94D4110C9406
:102240001F125F3FE4F3983ED4F386957795679528
:10225000B795F7959F5FC9F7880F911D969587955C
:1022600097F90895E1E0660F771F881FBB1F62177B
:1022700073078407BA0720F0621B730B840BBA0B39
:10228000EE1F88F7E09508950E94041288F09F578A
:1022900098F0B92F9927B751B0F0E1F0660F771F8A
:1022A000881F991F1AF0BA95C9F714C0B13091F080
:1022B0000E941E12B1E008950C941E12672F782F11
:1022C0008827B85F39F0B93FCCF386957795679545
:1022D000B395D9F73EF490958095709561957F4FB1
:1022E0008F4F9F4F0895E89409C097FB3EF4909557
:1022F0008095709561957F4F8F4F9F4F9923A9F0DF
:10230000F92F96E9BB279395F6958795779567956D
:10231000B795F111F8CFFAF4BB0F11F460FF1BC0B1
:102320006F5F7F4F8F4F9F4F16C0882311F096E944
:1023300011C0772321F09EE8872F762F05C06623F2
:1023400071F096E8862F70E060E02AF09A95660FAB
:10235000771F881FDAF7880F9695879597F9089564
:10236000990F0008550FAA0BE0E8FEEF16161706A6
:10237000E807F907C0F012161306E407F50798F00E
:10238000621B730B840B950B39F40A2661F0232B27
:10239000242B252B21F408950A2609F4A140A695A3
:1023A0008FEF811D811D089597F99F6780E870E088
:1023B00060E008959FEF80EC089500240A941616BB
:1023C000170618060906089500240A941216130623
:1023D000140605060895092E0394000C11F48823B1
:1023E00052F0BB0F40F4BF2B11F460FF04C06F5FCD
:1023F0007F4F8F4F9F4F089557FD9058440F551FA3
:1024000059F05F3F71F04795880F97FB991F61F076
:102410009F3F79F087950895121613061406551FED
:10242000F2CF4695F1DF08C0161617061806991F59
:10243000F1CF86957105610508940895E894BB274E
:1024400066277727CB0197F908950E94B01108F409
:102450008FEF08950E943D120C94EB110E94DD1144
:1024600038F00E94E41120F0952311F00C94D4115F
:102470000C94DA1111240C941F120E94FC1170F3B9
:10248000959FC1F3950F50E0551F629FF001729F19
:10249000BB27F00DB11D639FAA27F00DB11DAA1F28
:1024A000649F6627B00DA11D661F829F2227B00D75
:1024B000A11D621F739FB00DA11D621F839FA00D00
:1024C000611D221F749F3327A00D611D231F849F50
:1024D000600D211D822F762F6A2F11249F575040A7
:1024E0009AF0F1F088234AF0EE0FFF1FBB1F661F22
:1024F000771F881F91505040A9F79E3F510580F0EB
:102500000C94D4110C941F125F3FE4F3983ED4F363
:10251000869577956795B795F795E7959F5FC1F78E
:10252000FE2B880F911D9695879597F9089587FB47
:10253000082E062687FD819567FD61950E94D312BE
:102540000EF4919507FC81950895AA1BBB1B51E1E0
:1025500007C0AA1FBB1FA617B70710F0A61BB70B13
:10256000881F991F5A95A9F780959095BC01CD01B8
:10257000089597FB072E16F4009407D077FD09D035
:102580000E94A51207FC05D03EF4909581959F4FBF
:102590000895709561957F4F0895EE0FFF1F059088
:1025A000F491E02D0994991B79E004C0991F9617C6
:1025B00008F0961B881F7A95C9F780950895F894BE
:0225C000FFCF4B
:1025C20080FFFFFFFFFFFFFFFFFFFFFF01FF020191
:1025D200FFFFFF0405FF01FF0281FFFFFF0405FF6C
:1025E20002FF05FFFFFFFF06070103010302FF01D0
:1025F200020809010401FF820401020A0A0204FF1F
:10260200FF058403030A0A02FFFFFFFFFF0303FF24
:10261200FF03FF01FFFFFF0404FFFF0306FFFF8329
:102622000704040B0B04050406FF8705060B0C06C2
:10263200FF07FF06FF090AFFFF05FF04FF86FF0AE7
:102642000AFFFF0000000000000000000002FE037D
:10265200000400050000000000DB013B01680143AB
:1026620002990177018B0100000000FA03CD03B249
:1026720004A303C603B303A4030D0A0020747275F6
:10268200652000666C697070696E672066726F679C
:1026920020230068692062617320333A3336007464
:1026A20072616E736974696F6E696E670061646AE4
:1026B2006163656E74207475726E6F7574203D204F
:1026C200006E65772073656374696F6E203D20002C
:1026D2006E65772073656374696F6E20656E7465CD
:1026E20072656400494E535452554354494F4E202B
:1026F20042554646455220484153204F5645524680
:102702004C4F5745442C20594F55204D4F52524F54
:102712004E2121212028646F6E2774206265206F6C
:102722006666656E65642C20697427732061206A71
:102732006F6B652900434154415354524F504849ED
:10274200432053595354454D204641494C55524517
:102752002C2050524F4752414D204841532054455E
:10276200524D494E4154454400796F752073656E50
:102772007420746F6F206D616E7920627974657355
:1027820020696E746F20746865204649464F206246
:1027920075666665722C20636F727265637420744D
:0427A20068697300EF
:00000001FF
