:100000000C94D4000C94FC000C94FC000C94FC00A8
:100010000C94FC000C94FC000C94FC000C947309F0
:100020000C94FC000C94FC000C94FC000C94FC0060
:100030000C9414090C94FC000C94FC000C94FC002F
:100040000C94AB070C94FC000C9479070C945307A8
:100050000C94FC000C94FC000C94FC000C94FC0030
:100060000C94F5070C94FC0073656E736F7220009E
:100070002073657420617420007475726E6F7574DE
:10008000200000000000240027002A0073656E7322
:100090006F727320696E697469616C697A65640056
:1000A00000000000250028002B004443432073700B
:1000B000656564203D200050574D20737065656470
:1000C000203D2000446F776E20627574746F6E203F
:1000D0006973207072657373656400557020627572
:1000E00074746F6E20697320707265737365640039
:1000F0000000000023002600290004040404040476
:1001000004040202020202020303030303030102C6
:100110000408102040800102040810200102040895
:100120001020000000080002010000030407000086
:10013000000000000000545241434B20504F5745EF
:100140005220454E41424C454400545241434B20BD
:10015000504F5745522044495341424C454400209A
:100160007472616E736974696F6E696E672E2E2E7C
:1001700020002050574D204D4F444520454E4142D0
:100180004C45442000204449474954414C204D4FA0
:10019000444520454E41424C45442C204144445264
:1001A0004553533A2000E50911241FBECFEFD8E094
:1001B000DEBFCDBF12E0A0E0B1E0EAEAF8E202C0A3
:1001C00005900D92A83FB107D9F727E0A8EFB2E05C
:1001D00001C01D92AD35B207E1F710E0C4EDD0E0EB
:1001E00004C02197FE010E942D14C33DD107C9F719
:1001F0000E94290A0C9453140C9400000895089549
:10020000AF92BF92CF92DF92EF92FF920F931F9324
:10021000CF93DF936C017B018B01040F151FEB0162
:100220005E01AE18BF08C017D10759F06991D60119
:10023000ED91FC910190F081E02DC6010995892B8B
:1002400079F7C501DF91CF911F910F91FF90EF904A
:10025000DF90CF90BF90AF900895FC01538D448DF7
:10026000252F30E0842F90E0821B930B541710F061
:10027000CF96089501970895FC01918D828D98176E
:1002800061F0A28DAE0FBF2FB11D5D968C91928D46
:100290009F5F9F73928F90E008958FEF9FEF089577
:1002A000FC01918D828D981731F0828DE80FF11D40
:1002B000858D90E008958FEF9FEF0895FC01918D5B
:1002C000228D892F90E0805C9F4F821B91098F7354
:1002D0009927089587EA96E00E945E0121E0892B24
:1002E00009F420E0822F089580E090E0892B29F026
:1002F0000E946A0181110C9400000895FC01A48DF4
:10030000A80FB92FB11DA35ABF4F2C91848D90E037
:1003100001968F739927848FA689B7892C93A0891A
:10032000B1898C91837080648C93938D848D9813A4
:1003300006C00288F389E02D80818F7D8083089537
:10034000EF92FF920F931F93CF93DF93EC0181E025
:10035000888F9B8D8C8D98131AC0E889F9898081CC
:1003600085FF15C09FB7F894EE89FF896083E889FF
:10037000F98980818370806480839FBF81E090E0F1
:10038000DF91CF911F910F91FF90EF900895F62E7E
:100390000B8D10E00F5F1F4F0F731127E02E8C8D18
:1003A0008E110CC00FB607FCFACFE889F98980815D
:1003B00085FFF5CFCE010E947E01F1CFEB8DEC0FD2
:1003C000FD2FF11DE35AFF4FF0829FB7F8940B8F7A
:1003D000EA89FB8980818062CFCF0F931F93CF93EF
:1003E000DF938C01D0E0C0E0F801EC0FFD1F6491B9
:1003F000662341F087EA96E00E94A001892B11F064
:100400002196F2CFCE01DF91CF911F910F910895E8
:10041000CF93DF93EC01888D8823B9F0AA89BB893B
:10042000E889F9898C9185FD03C0808186FD0DC026
:100430000FB607FCF7CF8C9185FFF2CF808185FF47
:10044000EDCFCE010E947E01E9CFDF91CF910895DB
:10045000833081F028F4813099F08230A9F008953A
:100460008730A9F08830C9F08430B1F480918000E1
:100470008F7D03C0809180008F77809380000895E6
:1004800084B58F7784BD089584B58F7DFBCF80912F
:10049000B0008F778093B00008958091B0008F7D79
:1004A000F9CF1F93CF93DF93282F30E0F901EE5D52
:1004B000FE4F8491F901E25FFE4FD491F901E650BD
:1004C000FF4FC491CC23A9F0162F81110E9428025E
:1004D000EC2FF0E0EE0FFF1FE056FF4FA591B49117
:1004E0008FB7F894EC91111108C0D095DE23DC93FE
:1004F0008FBFDF91CF911F910895DE2BF8CFCF935F
:10050000DF9390E0FC01E25FFE4F249186509F4F05
:10051000FC0184918823D1F090E0880F991FFC01A1
:10052000EE57FF4FA591B491FC01E056FF4FC591E6
:10053000D49161110EC09FB7F8948C91E22FE09591
:100540008E238C932881E223E8839FBFDF91CF9194
:1005500008958FB7F894EC91E22BEC938FBFF6CF10
:100560008E50806480937C0080917A0080648093B8
:100570007A0080917A0086FDFCCF8091780090917E
:10058000790008953FB7F8948091760390917703AE
:10059000A0917803B091790326B5A89B05C02F3FA1
:1005A00019F00196A11DB11D3FBFBA2FA92F982F99
:1005B0008827BC01CD01620F711D811D911D42E094
:1005C000660F771F881F991F4A95D1F708958F925C
:1005D0009F92AF92BF92CF92DF92EF92FF924B0128
:1005E0005C010E94C2026B017C010E94C2026C1974
:1005F0007D098E099F09683E734081059105A8F326
:1006000021E0821A9108A108B10888EEC80E83E0A3
:10061000D81EE11CF11C81149104A104B10429F736
:10062000FF90EF90DF90CF90BF90AF909F908F9012
:10063000089585ED8093BC008091BC0084FDFCCFC3
:1006400010928006089520914E03260F3327331F02
:1006500021323105ECF420918006FC0190E080E02D
:10066000243069F082E00895A0914E032191AC01FD
:10067000425D5C4FA40FB52FB11D2C9301968617D8
:1006800098F380914E03680F60934E0380E00895C5
:1006900081E008951092800681E080937F06109299
:1006A0007A0661E082E10E94510261E083E10E94EA
:1006B0005102E9EBF0E080818E7F808380818D7F25
:1006C000808388E48093B80085E48093BC0008951B
:1006D0000895E091820680918106E81730F4F0E0F9
:1006E000ED57F94F808190E008958FEF9FEF0895C7
:1006F00090918206809181062FEF3FEF981748F482
:10070000E92FF0E0ED57F94F208130E09F5F9093A3
:100710008206C90108958091810690918206891B05
:10072000990B0895CF92DF92EF92FF920F931F9350
:10073000CF93DF937C01CB018A012091A60622236F
:1007400089F0EB016B01C40ED51ECC15DD0569F0F7
:100750006991D701ED91FC910190F081E02DC701E5
:100760000995F3CF642F0E942303C801DF91CF9135
:100770001F910F91FF90EF90DF90CF900895CF934E
:10078000DF931F92CDB7DEB769832091A60622239F
:10079000F9F02091A306203258F021E030E0FC016E
:1007A0003383228390E080E00F90DF91CF91089512
:1007B0008091A406E82FF0E0E25FFC4F99819083DE
:1007C0008F5F8093A4068093A30681E090E0ECCF36
:1007D00061E0CE0101960E942303F7CF2091A3068A
:1007E00081E0213208F044C0809180068111FCCF65
:1007F0008091A50692E09093800691E090937F0609
:100800009FEF90937E0610927D0620937C06AEE0CB
:10081000B3E0EAE5F6E090E0291331C010927B06E0
:1008200090917B06880F892B80937B0680917A06B6
:10083000813049F510927A0680917B068093BB0047
:100840008091BC0083FDF8CF85EC8093BC00809143
:1008500080068230E1F380917E068F3FB1F0809177
:100860007E068032A1F080917E06803391F084E094
:100870001092A4061092A3061092A60608953D9128
:1008800031939F5FC9CF85EEE0CF80E0F1CF82E06A
:10089000EFCF83E0EDCF1F93CF93DF93162FC0E50B
:1008A000D7E0A981BA81988121E02093A606909390
:1008B000A5061092A4061092A306ED91FC91119743
:1008C0000190F081E02D682FCD01099589819A81F1
:1008D000DC01ED91FC910190F081E02D612F0995F3
:1008E00089819A81DF91CF911F910C94EE0390E062
:1008F00080E00895DC01ED91FC910190F081E02D04
:1009000009940F931F93CF93DF938B01C0E5D7E03A
:10091000A981BA81988121E02093A6069093A5062B
:100920001092A4061092A30694E0899FB0011124AE
:100930006A5F7F4FED91FC9111970190F081E02D5E
:10094000CD01099570E060E089819A810E947A0466
:1009500070E060E089819A810E947A04B8018981FF
:100960009A810E947A04612F70E089819A810E94A5
:100970007A0489819A81DF91CF911F910F910C9414
:10098000EE03FC0101900020E9F73197AF01481B0D
:10099000590BBC0187EA96E00C9400018F929F925C
:1009A000AF92BF920F931F93CF93DF93CDB7DEB774
:1009B000A1970FB6F894DEBF0FBECDBF19A242308B
:1009C00008F44AE08E010F5D1F4F842E912CB12C4C
:1009D000A12CA50194010E94A311E62FB901CA011F
:1009E000EA30F4F4E05DD801EE938D01232B242B43
:1009F000252B79F790E080E0109719F0CD010E9447
:100A0000C104A1960FB6F894DEBF0FBECDBFDF9133
:100A1000CF911F910F91BF90AF909F908F900895AD
:100A2000E95CE1CFCF92DF92EF92FF92CF93DF9319
:100A30006B017C016DE287EA96E00E94A001EC0167
:100A400066277727CB016C197D098E099F094AE03B
:100A50000E94CE048C0F9D1FDF91CF91FF90EF90ED
:100A6000DF90CF9008950C94C104CF93DF930E9440
:100A7000C104EC018DEB91E00E94C1048C0F9D1F1D
:100A8000DF91CF910895CF93DF930E94ED01EC01A8
:100A90008DEB91E00E94C1048C0F9D1FDF91CF91DF
:100AA00008951F93CF93DF9384E180939303809104
:100AB00008038F5F8830A9F0809308031091080322
:100AC000C12FD0E0183040F5FE01E759FA4F0C94E1
:100AD0002D1474057A058005B805C205C405C60540
:100AE000C80510920803EACF60E085E00E94510239
:100AF00061E00BC060E085E00E94510260E03DC013
:100B000060E085E00E94510260E086E00E945102B0
:100B100060E087E00E94510280E10E94B002FE0185
:100B2000EE0FFF1FE850FD4F2081318191838083BC
:100B3000821B930B97FF03C0919581959109C35533
:100B4000DC4F8739910534F181E0888388E690E0B5
:100B50000E94ED01612F70E090E080E04AE00E9489
:100B6000CE0480EC91E0DF91CF911F910C9435057C
:100B700060E085E00E94510261E086E00E9451023F
:100B800061E0C7CF61E0BDCF61E0AFCF61E0F1CF01
:100B900061E0B1CF1882DF91CF911F910895CF937B
:100BA000DF93682F70E090E080E04AE00E94CE047E
:100BB000EC018DEB91E00E94C1048C0F9D1FDF9131
:100BC000CF910895CF93DF939C01BC01990F880BBF
:100BD000990B37FF0CC00E941205EC018DEB91E0E0
:100BE0000E94C1048C0F9D1FDF91CF9108954AE0B0
:100BF0000E94CE04F2CF8F929F92AF92BF92CF927B
:100C0000DF92EF92FF92CF936B017C0120E030E006
:100C100040E85FE30E94411287FDE3C020E030EC32
:100C20004AE555E4C701B6010E94991318163CF431
:100C3000C12C30ECD32E3AE5E32E35E4F32E60914F
:100C400053077091540780915507909156070E9461
:100C5000E7124B015C0120E030E040E855E4C701B9
:100C6000B6010E949E139B01AC01C501B4010E9414
:100C7000461220E030E040E05FE30E94D51120E022
:100C800030E040E85FE30E94D4116B017C0120E07A
:100C900030E040E450E40E94411287FDA9C020E00A
:100CA00030E04FE753E4C701B6010E9499131816CC
:100CB00034F4C12CD12C9FE7E92E93E4F92EC7011F
:100CC000B6010E94B812F62E8091510790915207FA
:100CD0002091500731E03093A6062093A50610928C
:100CE000A4061092A306DC01ED91FC910190F08125
:100CF000E02D60E0099580915107909152070E9484
:100D0000EE0380915007909180069111FCCF91E005
:100D10009093800690937F062FEF20937E0610928B
:100D20007D0610927C0690937B0690917B06880F3F
:100D3000892B80937B0680917A06813009F05EC012
:100D400010927A0680917B068093BB008091BC0054
:100D500083FDF8CF85EC8093BC00809180068130C4
:100D6000E1F380917D0691E0811102C090917D06B2
:100D7000AAE5B6E0E3E8F6E080E0891341C010920E
:100D80008206809381068091510790915207DC0181
:100D9000ED91FC910284F385E02D0995C82F682F11
:100DA0006F76606180E00E944B046F2D8EEF0E9491
:100DB0004B046C2F80E00E944B0465E070E080E003
:100DC00090E00E94E7026C2F606A80E0CF91FF9074
:100DD000EF90DF90CF90BF90AF909F908F900C944A
:100DE0004B04C12CD12C20E8E22E2FE3F22E27CF8A
:100DF000C12CD12C80E4E82EFE2C61CF85EEABCF48
:100E00002D9121938F5FB9CF0F931F93CF93DF93D2
:100E1000182F84E680935906112319F011501930C8
:100E2000E8F5C12FD0E0FE01EE0FFF1FEC0FFD1F14
:100E3000EC56FC4F6283662379F10181202F30E06C
:100E4000A2E7B1E00E94C51124EB30E040E050E0A1
:100E50000E947911CA01B90168587F4F8F4F9F4F87
:100E6000812F0E94810489E790E00E94ED01BE017C
:100E70006F5F7F4F072E000C880B990B4AE00E9492
:100E8000CE0480E790E00E94ED01802FDF91CF91AA
:100E90001F910F910C94CF050081D0CFDF91CF919E
:100EA0001F910F9108951F920F920FB60F92112468
:100EB0002F933F934F935F936F937F938F939F9362
:100EC000AF93BF93EF93FF9387EA96E00E947E0172
:100ED000FF91EF91BF91AF919F918F917F916F9112
:100EE0005F914F913F912F910F900FBE0F901F90E8
:100EF00018951F920F920FB60F9211242F938F9374
:100F00009F93EF93FF93E091B706F091B80680812D
:100F1000E091BD06F091BE0682FD1BC090818091DC
:100F2000C0068F5F8F732091C106821741F0E09158
:100F3000C006F0E0E955F94F958F8093C006FF9108
:100F4000EF919F918F912F910F900FBE0F901F9057
:100F500018958081F4CF1F920F920FB60F92112433
:100F60002F933F938F939F93AF93BF93809172037F
:100F700090917303A0917403B09175033091710344
:100F800023E0230F2D3758F50196A11DB11D2093A5
:100F900071038093720390937303A0937403B093CF
:100FA00075038091760390917703A0917803B091B7
:100FB00079030196A11DB11D809376039093770369
:100FC000A0937803B0937903BF91AF919F918F91D4
:100FD0003F912F910F900FBE0F901F90189526E80C
:100FE000230F0296A11DB11DD2CF1F920F920FB6F3
:100FF0000F9211242F933F934F935F936F937F939F
:101000008F939F93AF93BF93EF93FF938091B9001A
:10101000887F803609F44AC0F0F5883209F4A7C009
:1010200018F5803109F49BC0B8F4882309F4F9C09D
:10103000883009F494C0FF91EF91BF91AF919F91D7
:101040008F917F916F915F914F913F912F910F9071
:101050000FBE0F901F901895883109F488C0803218
:1010600051F780937E0614C0803409F49DC040F48B
:101070008033B9F38833F9F680937E0685ECB0C0EF
:10108000803509F485C0883509F496C0883499F60E
:101090000E941903D0CF883909F48CC038F58837FD
:1010A00029F050F4883611F0803729F683E08093D8
:1010B00080061092700357C0883809F47BC08039CD
:1010C00019F0803809F0B7CF80917003803208F0B2
:1010D00071C0E091700381E08E0F80937003809166
:1010E000BB00F0E0E05BFC4F80833DC0803B39F00B
:1010F000E0F4803A09F479C0883A09F09CCF84E0A2
:101100008093800610924F0310924E03E091860365
:10111000F0918703099580914E0381110FC081E002
:1011200080934E0310922E0309C0803C09F4A6CF91
:10113000883C09F4A3CF883B09F07DCFE0914F03B1
:1011400081E08E0F80934F03F0E0E25DFC4F8081E1
:101150008093BB0090914F0380914E0329C08091F2
:101160007B068093BB0085EC8093BC0064CF90919C
:101170007D0680917C06981758F5E0917D0681E008
:101180008E0F80937D06F0E0E65AF94F8081E9CF1B
:10119000E0917D0681E08E0F80937D068091BB00FB
:1011A000F0E0E65AF94F808390917D0680917C06AD
:1011B0009817C8F285E8D8CFE0917D0681E08E0FC0
:1011C00080937D068091BB00F0E0E65AF94F808362
:1011D00080917F0681115CCF81E080937A0684EA5A
:1011E0008093BC001092800626CF85EC8093BC00D3
:1011F0001092800680917003803230F4E091700389
:10120000F0E0E05BFC4F10826091700370E0E091D1
:101210008803F091890380E593E0099510927003AB
:101220000ACF10927E0634CF1F920F920FB60F9204
:1012300011242F933F934F935F938F939F93EF933B
:10124000FF938BB198E189278BB990910D0381E0D1
:10125000892780930D03913041F1E0918403F0914F
:10126000850380910001908198234FE953E011F4A8
:101270004FE357E05093890040938800803411F584
:101280009091AF0491FB222720F930E043E0220F38
:10129000331F4A95E1F72A543B4FE217F30791F4C5
:1012A00080916F008B7F80936F00FF91EF919F91F2
:1012B0008F915F914F913F912F910F900FBE0F90A3
:1012C0001F90189590E095958795009719F0809359
:1012D0000001EBCF80E8809300013196F093850305
:1012E000E0938403E2CF1F920F920FB60F92112466
:1012F0008F939F9380910C038F5F80930C03909149
:101300009203992329F09091920391509093920324
:1013100090919303992329F0909193039150909386
:1013200093038A3009F04AC010920C0380910B039A
:101330008F5F80930B0390910A03992329F090917A
:101340000A03915090930A0390918F03992329F0F7
:1013500090918F03915090938F039091540699230D
:1013600029F090915406915090935406909159060B
:10137000992329F0909159069150909359068A30FB
:10138000E9F410920B03809109038F5F80930903A6
:1013900090919003992329F090919003915090930C
:1013A000900390915706992329F0909157069150F8
:1013B000909357068A3011F4109209039F918F91F0
:1013C0000F900FBE0F901F901895E7EAF6E013827A
:1013D000128288EE93E0A0E0B0E084839583A68338
:1013E000B7832DE931E03183208325EC30E0358768
:1013F000248724EC30E03787268720EC30E0318BDF
:10140000208B21EC30E0338B228B22EC30E0358BCB
:10141000248B26EC30E0378B268B118E128E138EA8
:10142000148EE4E4F7E01382128284839583A6830A
:10143000B7838FEA91E091838083A0E5B7E080E4F1
:101440008C931296FC93EE93119784E080935A0745
:101450000895789484B5826084BD84B5816084BD2C
:1014600085B5826085BD85B5816085BD80916E0042
:10147000816080936E001092810080918100826073
:1014800080938100809181008160809381008091B0
:1014900080008160809380008091B100846080939F
:1014A000B1008091B00081608093B00080917A009B
:1014B000846080937A0080917A00826080937A00C1
:1014C00080917A00816080937A0080917A008068B0
:1014D00080937A001092C100F8941092B10010929B
:1014E000B20089EF8093B3008091B0008260809356
:1014F000B0008091B10081608093B1008091B10013
:1015000082608093B1008091B1008B7F8093B100A5
:10151000809170008260809370007894E091B706AB
:10152000F091B80682E08083E091B306F091B406B2
:101530001082E091B506F091B60680E180831092AA
:10154000BF06E091BB06F091BC0686E08083E09187
:10155000B906F091BA06808180618083E091B90676
:10156000F091BA06808188608083E091B906F0919D
:10157000BA06808180688083E091B906F091BA064E
:1015800080818F7D80831092820610928106109256
:10159000A4061092A3060E944A038EEF90E0909357
:1015A0008703809386038FEF90E090938903809365
:1015B000880360E088E00E947F0260E089E00E948A
:1015C0007F0261E088E00E947F0261E084E00E9487
:1015D0007F0261E082E00E947F0261E083E00E947E
:1015E0007F0261E08DE00E947F0260E080E10E9466
:1015F0007F0260E081E10E947F0260E085E10E945D
:101600007F0260E084E10E947F0261E087E00E9447
:101610007F0261E086E00E947F0261E085E00E9437
:101620007F0261E08DE00E947F02D1E0D093A606A8
:10163000C0E2C093A50660E084E497E00E94BF0387
:1016400070E060E084E497E00E947A0470E060E07B
:1016500084E497E00E947A0484E497E00E94EE0319
:10166000D093A606C093A5061092A4061092A306D6
:101670006CE084E497E00E94BF0370E060E084E4E3
:1016800097E00E947A0470E060E084E497E00E94B2
:101690007A0484E497E00E94EE0387EC91E00E94D4
:1016A000350544244A94B3E05B2E612C712CC0ECC8
:1016B000CC2ECCEFDC2ECBE9EC2EFF24F394AFE95B
:1016C0002A2EA3E03A2E80915506811173C0809195
:1016D0009003811152C080915B0790915C07892B28
:1016E00009F44BC00E94C20280907B0390907C035F
:1016F000A0907D03B0907E039B01AC0128193909AD
:101700004A095B0949015A0120915707309158074E
:1017100050E040E082169306A406B50670F160938F
:101720007B0370937C0380937D0390937E03809171
:101730007A0381110DC090915907992349F0E091E6
:101740005B07F0915C07208190915A07922B908360
:101750009091590789130CC0843650F4E0915B07CF
:10176000F0915C07208190915A0790959223908385
:101770008F5F8536E0F480937A03809192018F5FCA
:1017800080939201833009F438C408F075C1813028
:1017900009F4E4C308F4ADC28091590681119AC2DC
:1017A00080919303811196C20E94510593C21092B9
:1017B0007A03E3CF90910201913009F47FC050F099
:1017C000923009F439C1109202018EEC91E00E942E
:1017D0003505D3CF80918103882379F080918003F0
:1017E0008F5F843131F08093800381E08093020128
:1017F000C4CF1092800310928103E091B4038091D2
:10180000B3034091830350917F03909101018E17A0
:10181000B9F1AE2FB0E0AD54BC4F12968C918093CD
:10182000830382E08E0F8093B403EF5FF0E0ED540A
:10183000FC4F8281809301019091C004925090935B
:10184000C004833020F4813050F082E009C085303C
:1018500050F08530D1F381E080938103C6CF81E0E1
:1018600080930101F8CF83E0FBCF842F58131FC072
:101870009230C9F09330C9F0913009F492E040E021
:1018800081E0840F64E0869F900111242F533B4F29
:10189000843658F72C5F3F4FF901319760816330F0
:1018A00028F38F5FF5CF93E0EACF91E0E8CF809304
:1018B00083039093010180937F0397CF8091AF04BE
:1018C000282F2170292720FB80F98093AF044091B5
:1018D000830330E050910101C901F3E0880F991FA3
:1018E000FA95E1F7523009F480C0533009F495C0FD
:1018F0005130D9F4C4E04C9FB0011124FB01EF53E7
:10190000FB4FE08154EE5E0FA091820357FF3DC074
:101910005CE15E1BA0E4A093820356FF3AC0A07E68
:10192000A160FC01EC54FB4FA083BC016D547C4FC3
:10193000FB01EF5FFE4F90819427349781E0808315
:1019400031968FEF808331968CEF808383E0220F76
:10195000331F8A95E1F7F901ED54FB4F440F4083A3
:10196000292F30E0FB01EE5FFE4FC9019595879569
:1019700080836D5F7E4F3695322F222737952795CE
:101980002064FB01208382E031CF552321F2A0E6C1
:10199000C2CFFB01EF53FB4FE381E13069F457FD08
:1019A0005F5F559559F05F5FA52B6E537B4FFB0131
:1019B000508150FD18C0B5CF511102C0A07EB1CFEB
:1019C000E23009F0AECFE52F052E000CFF0BBF0172
:1019D0006D5F7F4F77FF02C06F5F7F4F7595679593
:1019E000A62B50FD9ECFA0619CCFF4E04F9FB0018D
:1019F0001124FB01EF53FB4F52815F70A52FA068AC
:101A00006E537B4FEB01688160FF8BCF6381623047
:101A100009F087CFA52FA06984CFDC01AC54BB4F60
:101A2000D4E04D9FF0011124EF53FB4F52815295AA
:101A30005F70506B5C9379CF80916F0082FD9DCE7B
:101A40009091AF04892F817080FB91F99093AF043E
:101A500090E003E0880F991F0A95E1F780559B4FAE
:101A6000909385038093840380916F0084608093BA
:101A70006F001092020181CE853009F40DC408F484
:101A80006AC38F3F09F033C110928206109281061B
:101A90001092A4061092A3060E944A032EEF30E093
:101AA00030938703209386034FEF50E050938903D0
:101AB0004093880360E880E00E944B046AE070E095
:101AC00080E090E00E94E70260E070E08AE794E442
:101AD0000E94FB05C0925307D0925407E09255072D
:101AE000F092560760E070E088E492E40E94FB0503
:101AF0003DE23093940387E88093950381E08093DF
:101B000096031092970326E42093980380939903F9
:101B10009AE590939A0330939B0380939C033FE54F
:101B200030939D033EE130939E0380939F03209367
:101B3000A00329E62093A1038093A2033CE3309302
:101B4000A3032093A4038093A50326E92093A6036F
:101B50009093A7038093A803C4E9D3E000E06881D1
:101B600070E090E080E04AE00E94CE0460E287EA04
:101B700096E00E94A001698170E090E080E04AE078
:101B80000E94CE0460E287EA96E00E94A0016A818A
:101B900070E090E080E04AE00E94CE046EEB70E0DE
:101BA000802F0E9481040F5F23960730C1F661E009
:101BB00080915A070E947F0280915A0790E0FC01B1
:101BC000E650FF4F2491FC01E25FFE4FE491E09369
:101BD0005A07E22FF0E0EE0FFF1FE056FF4F85910E
:101BE000949190935C0780935B07F89480918000B8
:101BF000816080938000809180008260809380006B
:101C00008091810088608093810080918100806153
:101C10008093810080918000806280938000809119
:101C20008000806180938000809181008B7F809311
:101C30008100809181008D7F80938100809181005F
:101C4000816080938100309289002092880078948E
:101C5000E1ECF4E081E090E032E02CE13783248392
:101C60001682DC01AA0FBB1FAA0FBB1FAE53BB4FCE
:101C70004C9141604C93019634968436910571F7EE
:101C80007894C8E0D0E0109293038091930381117F
:101C900002C00E9451052197B1F71092AD03109236
:101CA000AE031092AF031092B0031092B1031092E2
:101CB000B2031092B3031092B4038CE890E00E9438
:101CC000430568EE73E080E090E00E94E70282E363
:101CD0008093900380E090E0892B09F4F4CC0E947B
:101CE0006A01882309F4EBCC0E940000E8CC109232
:101CF000920180918F038111EDCF80910401813099
:101D0000D1F58CE080938F0385E10E94B0029C01A5
:101D100040918D0350918E038417950708F4E1C21A
:101D2000841B863060F580E090E0E0919101CAE08C
:101D3000EC9FF0011124EB5FFE4FD381C28190FB39
:101D400010F980FB11F910FF52C08BED90E00E945A
:101D500043058091AC03813021F460E08D2F0E9417
:101D600004078091AC0360E0823009F0B3CF8C2F80
:101D70000E940407AFCF823039F686E0C3CF30939C
:101D80008E0320938D03C9018F5591408F38914068
:101D9000D8F450E040E02E55314041095109ACE300
:101DA000B0E00E94981120E931E040E050E00E944C
:101DB000791182EE820F63E00E940B14982F990F25
:101DC000890F80938C03AFCF253D63E0360728F061
:101DD00082E380938F0381E0A7CF2C32310508F096
:101DE000A2CF82E380938F0380E091E09ECF11FF2A
:101DF00013C084EC90E00E9443058091AC038130D5
:101E000021F461E08D2F0E9404078091AC038230A1
:101E100009F060CF61E0ABCF90918C0380918B0390
:101E200089171CF48F5F80938B0380918B03981725
:101E30001CF4815080938B03B0908B03CB2D0B2C23
:101E4000000CDD0BCE01D7FF04C0882799278C1B1F
:101E50009D0B20918A03281719060CF058C021E029
:101E60002093040180938A0380910301B81609F43A
:101E700031CFB092030182E0B7FC03C0BB2019F060
:101E800081E08093AC038091550681114CC0B7FE70
:101E900040C060E082E00E94510261E083E00E9465
:101EA000510287EB90E00E94ED01CE010E94E20515
:101EB00020918B03022E000C330B37FF03C03195AA
:101EC00021953109822F253608F024E62093590701
:101ED0008B3038F130E050E040E02A5031094109C0
:101EE0005109A2E3B0E00E9498112AE530E040E0F9
:101EF00050E00E9479112E5C622F70E080E197E241
:101F00000E9419147093580760935707E3CE22E09C
:101F1000A7CFBB2031F261E082E00E94510260E075
:101F2000BDCF22E3E9CF8AEA90E00E94ED012B2D9C
:101F3000BB0C330B440B550B2C593F4F4F4F5F4F8E
:101F4000A8E3B0E00E94981128EC30E040E050E0B7
:101F50000E947911822F0E94CF05BCCEE6E2F1E00B
:101F60008491E2E1F1E0D491EEEFF0E0C491CC2372
:101F7000A1F181110E942802EC2FF0E0EE0FFF1F6B
:101F8000E051FF4FA591B4918C91D82331F180910C
:101F90009203811122C082E08093920381E10E942A
:101FA000B0028436910518F489E180939103809101
:101FB0009103882319F081508093910380919103BC
:101FC00081110BC060E084E00E9451028AE491E03C
:101FD0000E94430582E380939003809190038130B7
:101FE00009F078CE1092900361E084E00E945102E3
:101FF00086E391E00E9443056DCEA0909101B12C43
:102000008091AC03823009F05DC08AE08A9DE001D6
:102010008B9DD00D1124CB5FDE4FE881F0E0E355BE
:10202000FC4F8081813009F04DC010820A8182EF1F
:1020300091E00E94350580E092E00E943305802FF8
:102040000E94CF050F3F69F0802F90E09C01220F86
:10205000331F820F931FFC01EC56FC4F82818111CC
:1020600009C084E192E00E9433058E810E94CF0571
:10207000CE810AC0813031F584E192E00E943305BF
:102080008F810E94CF05CF81CC2309F423CE83E238
:1020900092E00E943505C0939101FAE0CF9FE001E4
:1020A0001124CB5FDE4F8C81682F661F6627661F69
:1020B0008F770E9404078D81682F661F6627661F31
:1020C0008F7756CE8091AC03813009F003CE8AE041
:1020D0008A9DE0018B9DD00D1124CB5FDE4FE981FD
:1020E000F0E0E355FC4F8081813009F0F3CD1082A0
:1020F0000B818FE591E00E94ED0180E092E00E946B
:102100003305802F0E94CF050F3F81F0802F90E094
:102110009C01220F331F820F931FFC01EC56FC4FD2
:102120000281802F0E94CF05011109C084E192E055
:102130000E94330588850E94CF05C885A5CF013050
:1021400009F0C8CD84E192E00E94330589850E94A0
:10215000CF05C98599CF809154068111BBCD89E106
:102160008093540684E10E94B002BC012091520683
:10217000309153068217930708F4B7C0821B7093FF
:10218000530660935206813408F4A4CD90E080E0B9
:10219000E2E0660F771F881F991FEA95D1F7A30128
:1021A00092010E947911222309F464C0022F243085
:1021B00008F003E0202F2150330BF901EE0FFF1F31
:1021C000ED56FE4FC081D181C0935106FE01FF271D
:1021D000EE0FFF1FEE0FFF1FEF53FB4F8CE18083CD
:1021E000E091B303AE2FB0E0AD54BC4F1296CC9348
:1021F00082E08E0F8093B303EF5FF0E0ED54FC4F6D
:1022000012828091C0048E5F8093C0048A3F18F1CF
:1022100087E392E00E94350588E892E00E94350548
:102220008CEB92E00E94350560E088E00E9451024C
:1022300064E670E080E090E00E94E70261E08DE0FB
:102240000E94510264E670E080E090E00E94E702A4
:1022500060E08DE0EBCF85E891E00E94ED018C2FEE
:102260000E94CF050230A9F0033099F081E08093FD
:1022700055060BC080916F008B7F80936F0082E7C3
:1022800091E00E9443051092550681E08093580624
:1022900021CD00935506F9CF90915806992309F462
:1022A00019CD90915706911115CD8093570685B1A0
:1022B00090E2892785B9209156062F5F2093560614
:1022C0008091550690E00196880F991F28171906EE
:1022D00009F00CF4FFCC109258062D981092560677
:1022E000F9CC642F681B862F1CCD922F981B892F49
:1022F00046CF052E97FB1EF400940E94901157FDC7
:1023000007D00E94A31107FC03D04EF40C94901147
:1023100050954095309521953F4F4F4F5F4F089511
:1023200090958095709561957F4F8F4F9F4F089541
:102330000E94C511A59F900DB49F900DA49F800D84
:10234000911D11240895A1E21A2EAA1BBB1BFD01A9
:102350000DC0AA1FBB1FEE1FFF1FA217B307E40784
:10236000F50720F0A21BB30BE40BF50B661F771FDC
:10237000881F991F1A9469F76095709580959095BC
:102380009B01AC01BD01CF010895A29FB001B39F95
:10239000C001A39F700D811D1124911DB29F700D6E
:1023A000811D1124911D08955058BB27AA270E9412
:1023B000EC110C945F130E94511338F00E945813D3
:1023C00020F039F49F3F19F426F40C944E130EF4C8
:1023D000E095E7FB0C944813E92F0E94701358F323
:1023E000BA17620773078407950720F079F4A6F5FA
:1023F0000C9492130EF4E0950B2EBA2FA02D0B0126
:10240000B90190010C01CA01A0011124FF27591B39
:1024100099F0593F50F4503E68F11A16F040A22F3F
:10242000232F342F4427585FF3CF469537952795B0
:10243000A795F0405395C9F77EF41F16BA0B620BAF
:10244000730B840BBAF09150A1F0FF0FBB1F661FF6
:10245000771F881FC2F70EC0BA0F621F731F841F39
:1024600048F4879577956795B795F7959E3F08F05F
:10247000B0CF9395880F08F09927EE0F9795879521
:1024800008950E94241308F481E008950E945A12CE
:102490000C945F130E94581358F00E94511340F09F
:1024A00029F45F3F29F00C94481351110C949313B5
:1024B0000C944E130E94701368F39923B1F35523C3
:1024C00091F3951B550BBB27AA2762177307840747
:1024D00038F09F5F5F4F220F331F441FAA1FA9F3DD
:1024E00035D00E2E3AF0E0E832D091505040E695CB
:1024F000001CCAF72BD0FE2F29D0660F771F881F2C
:10250000BB1F261737074807AB07B0E809F0BB0B1E
:10251000802DBF01FF2793585F4F3AF09E3F510532
:1025200078F00C9448130C9493135F3FE4F3983EB7
:10253000D4F3869577956795B795F7959F5FC9F71B
:10254000880F911D9695879597F90895E1E0660F9C
:10255000771F881FBB1F621773078407BA0720F015
:10256000621B730B840BBA0BEE1F88F7E09508957E
:102570000E94781388F09F5798F0B92F9927B75188
:10258000B0F0E1F0660F771F881F991F1AF0BA9517
:10259000C9F714C0B13091F00E949213B1E00895D0
:1025A0000C949213672F782F8827B85F39F0B93FC2
:1025B000CCF3869577956795B395D9F73EF49095CA
:1025C0008095709561957F4F8F4F9F4F0895E89448
:1025D00009C097FB3EF490958095709561957F4F6B
:1025E0008F4F9F4F9923A9F0F92F96E9BB27939519
:1025F000F695879577956795B795F111F8CFFAF429
:10260000BB0F11F460FF1BC06F5F7F4F8F4F9F4F59
:1026100016C0882311F096E911C0772321F09EE8B7
:10262000872F762F05C0662371F096E8862F70E01D
:1026300060E02AF09A95660F771F881FDAF7880FF7
:102640009695879597F90895990F0008550FAA0B4D
:10265000E0E8FEEF16161706E807F907C0F01216B5
:102660001306E407F50798F0621B730B840B950BB8
:1026700039F40A2661F0232B242B252B21F408950D
:102680000A2609F4A140A6958FEF811D811D0895AA
:1026900097F99F6780E870E060E008959FEF80EC15
:1026A000089500240A9416161706180609060895B8
:1026B00000240A9412161306140605060895092E1E
:1026C0000394000C11F4882352F0BB0F40F4BF2B8D
:1026D00011F460FF04C06F5F7F4F8F4F9F4F0895CD
:1026E00057FD9058440F551F59F05F3F71F04795C3
:1026F000880F97FB991F61F09F3F79F087950895A8
:10270000121613061406551FF2CF4695F1DF08C0C6
:10271000161617061806991FF1CF869571056105E3
:1027200008940895E894BB2766277727CB0197F98B
:1027300008950E94241308F48FEF08950E94B113A6
:102740000C945F130E94511338F00E94581320F02C
:10275000952311F00C9448130C944E1311240C94EF
:1027600093130E94701370F3959FC1F3950F50E07F
:10277000551F629FF001729FBB27F00DB11D639F33
:10278000AA27F00DB11DAA1F649F6627B00DA11DD9
:10279000661F829F2227B00DA11D621F739FB00D7F
:1027A000A11D621F839FA00D611D221F749F3327EF
:1027B000A00D611D231F849F600D211D822F762F88
:1027C0006A2F11249F5750409AF0F1F088234AF065
:1027D000EE0FFF1FBB1F661F771F881F91505040D1
:1027E000A9F79E3F510580F00C9448130C94931365
:1027F0005F3FE4F3983ED4F3869577956795B79558
:10280000F795E7959F5FC1F7FE2B880F911D969571
:10281000879597F9089587FB082E062687FD8195F1
:1028200067FD61950E9433140EF4919507FC819524
:10283000089597FB072E16F4009407D077FD09D072
:102840000E943F1407FC05D03EF4909581959F4F60
:102850000895709561957F4F0895EE0FFF1F0590C5
:10286000F491E02D0994991B79E004C0991F961703
:1028700008F0961B881F7A95C9F780950895AA1BC2
:10288000BB1B51E107C0AA1FBB1FA617B70710F05B
:10289000A61BB70B881F991F5A95A9F7809590958D
:0A28A000BC01CD010895F894FFCFAC
:1028AA008001013201FFFFFFFFFFFFFFFFFFFFFF74
:1028BA0001FF0201FFFFFF0405FF01FF0281FFFF85
:1028CA00FF0405FF02FF05FFFFFFFF0607010301E3
:1028DA000302FF01020809010401FF820401020A3E
:1028EA000A0204FFFF058403030A0A02FFFFFFFF2F
:1028FA00FF0303FFFF03FF01FFFFFF0404FFFF03C2
:10290A0006FFFF830704040B0B04050406FFFF05FB
:10291A00060B0C06FF07FFFFFF090AFFFF05FF046E
:10292A00FF86FF0A0AFFFF00000000000000000007
:10293A000002FE03000400050000000000A00100E0
:10294A00012D0108025E013C01500100000000BF98
:10295A00039203770468038B03780369030D0A0063
:10296A002074727565200068692062617300554E93
:10297A004B4E4F574E20535441544520454E5445D3
:10298A005245442C20435249544943414C20425514
:10299A0047007472616E736974696F6E696E67005D
:1029AA0061646A6163656E74207475726E6F7574A2
:1029BA00203D20006E65772073656374696F6E2011
:1029CA003D20006E65772073656374696F6E2065BC
:1029DA006E746572656400494E53545255435449A6
:1029EA004F4E2042554646455220484153204F56A5
:1029FA004552464C4F5745442C20594F55204D4F70
:102A0A0052524F4E2121212028646F6E2774206272
:102A1A0065206F6666656E65642C2069742773206D
:102A2A0061206A6F6B652900434154415354524FE8
:102A3A00504849432053595354454D204641494C27
:102A4A005552452C2050524F4752414D2048415330
:102A5A00205445524D494E4154454400796F7520E2
:102A6A0073656E7420746F6F206D616E7920627960
:102A7A0074657320696E746F2074686520464946D0
:102A8A004F206275666665722C20636F7272656389
:082A9A007420746869730000E8
:00000001FF
