:100000000C94CE000C94F6000C94F6000C94F600C0
:100010000C94F6000C94F6000C94F6000C94A009D5
:100020000C94F6000C94F6000C94F6000C94F60078
:100030000C9441090C94F6000C94F6000C94F60014
:100040000C94D8070C94F6000C94A6070C94800727
:100050000C94F6000C94F6000C94F6000C94F60048
:100060000C9422080C94F60073656E736F72200076
:100070002073657420617420007475726E6F7574DE
:10008000200000000000240027002A0073656E7322
:100090006F727320696E697469616C697A65640056
:1000A00000000000250028002B004443432073700B
:1000B000656564203D2000446F776E20627574741E
:1000C0006F6E20697320707265737365640055707C
:1000D00020627574746F6E2069732070726573731B
:1000E00065640000000000230026002900040404C9
:1000F00004040404040202020202020303030303D1
:1001000003010204081020408001020408102001AD
:10011000020408102000000008000201000003048F
:10012000070000000000000000545241434B2050E3
:100130004F57455220454E41424C45440054524190
:10014000434B20504F5745522044495341424C4560
:100150004400207472616E736974696F6E696E67B2
:100160002E2E2E20002050574D204D4F4445204527
:100170004E41424C45442000204449474954414C9B
:10018000204D4F444520454E41424C45442C204192
:100190004444524553533A200000120A11241FBE12
:1001A000CFEFD8E0DEBFCDBF12E0A0E0B1E0E0E1EC
:1001B000F9E202C005900D92A83FB107D9F727E0F8
:1001C000A8EFB2E001C01D92AD35B207E1F710E033
:1001D000CEECD0E004C02197FE010E946014CD3C1B
:1001E000D107C9F70E94560A0C9486140C9400009B
:1001F0009091A6069111FCCF91E09093A606909362
:10020000A5062FEF2093A4061092A306260F209395
:10021000A2069093A1069091A106880F892B809346
:10022000A1068091A0068130F9F41092A006809179
:10023000A1068093BB008091BC0083FDF8CF85ECC4
:100240008093BC008091A6068130E1F38091A306E3
:10025000861710F46091A306A0E8B6E0E0E6F6E0A9
:1002600080E0861303C0089585EEEACF9D919193B7
:100270008F5FF7CF08950895AF92BF92CF92DF922C
:10028000EF92FF920F931F93CF93DF936C017B014B
:100290008B01040F151FEB015E01AE18BF08C017DC
:1002A000D10759F06991D601ED91FC910190F0814F
:1002B000E02DC6010995892B79F7C501DF91CF9112
:1002C0001F910F91FF90EF90DF90CF90BF90AF9074
:1002D0000895FC01538D448D252F30E0842F90E04C
:1002E000821B930B541710F0CF9608950197089531
:1002F000FC01918D828D981761F0A28DAE0FBF2FFA
:10030000B11D5D968C91928D9F5F9F73928F90E04F
:1003100008958FEF9FEF0895FC01918D828D9817BE
:1003200031F0828DE80FF11D858D90E008958FEFFB
:100330009FEF0895FC01918D228D892F90E0805CC4
:100340009F4F821B91098F739927089587EA96E042
:100350000E949A0121E0892B09F420E0822F089560
:1003600080E090E0892B29F00E94A60181110C9475
:1003700000000895FC01A48DA80FB92FB11DA35A48
:10038000BF4F2C91848D90E001968F739927848FB5
:10039000A689B7892C93A089B1898C9183708064D8
:1003A0008C93938D848D981306C00288F389E02D79
:1003B00080818F7D80830895EF92FF920F931F932A
:1003C000CF93DF93EC0181E0888F9B8D8C8D981308
:1003D0001AC0E889F989808185FF15C09FB7F89414
:1003E000EE89FF896083E889F98980818370806460
:1003F00080839FBF81E090E0DF91CF911F910F91AB
:10040000FF90EF900895F62E0B8D10E00F5F1F4FB9
:100410000F731127E02E8C8D8E110CC00FB607FCC8
:10042000FACFE889F989808185FFF5CFCE010E9456
:10043000BA01F1CFEB8DEC0FFD2FF11DE35AFF4F09
:10044000F0829FB7F8940B8FEA89FB8980818062E4
:10045000CFCF0F931F93CF93DF938C01D0E0C0E0F9
:10046000F801EC0FFD1F6491662341F087EA96E0E6
:100470000E94DC01892B11F02196F2CFCE01DF9191
:10048000CF911F910F910895CF93DF93EC01888D49
:100490008823B9F0AA89BB89E889F9898C9185FDFF
:1004A00003C0808186FD0DC00FB607FCF7CF8C918D
:1004B00085FFF2CF808185FFEDCFCE010E94BA018A
:1004C000E9CFDF91CF910895833081F028F4813016
:1004D00099F08230A9F008958730A9F08830C9F0EA
:1004E0008430B1F4809180008F7D03C080918000C2
:1004F0008F7780938000089584B58F7784BD0895A9
:1005000084B58F7DFBCF8091B0008F778093B00052
:1005100008958091B0008F7DF9CF1F93CF93DF9323
:10052000282F30E0F901EB5EFE4F8491F901EF5F77
:10053000FE4FD491F901E351FF4FC491CC23A9F0B0
:10054000162F81110E946402EC2FF0E0EE0FFF1FC6
:10055000E056FF4FA591B4918FB7F894EC9111112B
:1005600008C0D095DE23DC938FBFDF91CF911F9120
:100570000895DE2BF8CFCF93DF9390E0FC01EF5F7F
:10058000FE4F249183519F4FFC0184918823D1F029
:1005900090E0880F991FFC01EE57FF4FA591B49191
:1005A000FC01E056FF4FC591D49161110EC09FB779
:1005B000F8948C91E22FE0958E238C932881E2238E
:1005C000E8839FBFDF91CF9108958FB7F894EC91A6
:1005D000E22BEC938FBFF6CF8E50806480937C002B
:1005E00080917A00806480937A0080917A0086FD01
:1005F000FCCF809178009091790008953FB7F894EE
:100600008091760390917703A0917803B09179035C
:1006100026B5A89B05C02F3F19F00196A11DB11D5D
:100620003FBFBA2FA92F982F8827BC01CD01620F99
:10063000711D811D911D42E0660F771F881F991F54
:100640004A95D1F708958F929F92AF92BF92CF9221
:10065000DF92EF92FF924B015C010E94FE026B0160
:100660007C010E94FE026C197D098E099F09683E7B
:10067000734081059105A8F321E0821A9108A10831
:10068000B10888EEC80E83E0D81EE11CF11C81146D
:100690009104A104B10429F7FF90EF90DF90CF906F
:1006A000BF90AF909F908F90089585ED8093BC0090
:1006B0008091BC0084FDFCCF1092A6060895209185
:1006C0004E03260F3327331F21323105ECF42091DE
:1006D000A606FC0190E080E0243069F082E00895F5
:1006E000A0914E032191AC01425D5C4FA40FB52F48
:1006F000B11D2C930196861798F380914E03680FD5
:1007000060934E0380E0089581E008951092A6065C
:1007100081E08093A5061092A00661E082E10E942C
:100720008D0261E083E10E948D02E9EBF0E08081BF
:100730008E7F808380818D7F808388E48093B80062
:1007400085E48093BC0008950895E0915B06809154
:100750005A06E81730F4F0E0E05AF94F808190E053
:1007600008958FEF9FEF089590915B0680915A0650
:100770002FEF3FEF981748F4E92FF0E0E05AF94FD8
:10078000208130E09F5F90935B06C90108958091BE
:100790005A0690915B06891B990B0895CF92DF92C0
:1007A000EF92FF920F931F93CF93DF937C01CB01C6
:1007B0008A0120915F06222389F0EB016B01C40EB0
:1007C000D51ECC15DD0569F06991D701ED91FC913D
:1007D0000190F081E02DC7010995F3CF642F0E94AD
:1007E0005F03C801DF91CF911F910F91FF90EF90B0
:1007F000DF90CF900895CF93DF931F92CDB7DEB7F0
:10080000698320915F062223F9F020915C06203253
:1008100058F021E030E0FC013383228390E080E057
:100820000F90DF91CF91089580915D06E82FF0E061
:10083000E25FFC4F998190838F5F80935D06809388
:100840005C0681E090E0ECCF61E0CE0101960E9471
:100850005F03F7CF20915C0681E0213208F044C0AD
:100860008091A6068111FCCF80915E0692E0909364
:10087000A60691E09093A5069FEF9093A406109290
:10088000A3062093A206AEE0B3E0E0E8F6E090E035
:10089000291331C01092A1069091A106880F892BCF
:1008A0008093A1068091A006813049F51092A006A0
:1008B0008091A1068093BB008091BC0083FDF8CF9E
:1008C00085EC8093BC008091A6068230E1F3809194
:1008D000A4068F3FB1F08091A4068032A1F08091F0
:1008E000A406803391F084E010925D0610925C06BD
:1008F00010925F0608953D9131939F5FC9CF85EEB9
:10090000E0CF80E0F1CF82E0EFCF83E0EDCF1F9327
:10091000CF93DF93162FC0E5D7E0A981BA819881E4
:1009200021E020935F0690935E0610925D06109280
:100930005C06ED91FC9111970190F081E02D682FFC
:10094000CD01099589819A81DC01ED91FC9101909D
:10095000F081E02D612F099589819A81DF91CF91F6
:100960001F910C942A0490E080E00895DC01ED9141
:10097000FC910190F081E02D09940F931F93CF9388
:10098000DF938B01C0E5D7E0A981BA81988121E08E
:1009900020935F0690935E0610925D0610925C06AF
:1009A00094E0899FB00111246A5F7F4FED91FC9123
:1009B00011970190F081E02DCD01099570E060E084
:1009C00089819A810E94B60470E060E089819A81F1
:1009D0000E94B604B80189819A810E94B604612FF1
:1009E00070E089819A810E94B60489819A81DF91A1
:1009F000CF911F910F910C942A04FC0101900020CB
:100A0000E9F73197AF01481B590BBC0187EA96E023
:100A10000C943C018F929F92AF92BF920F931F93C1
:100A2000CF93DF93CDB7DEB7A1970FB6F894DEBFB3
:100A30000FBECDBF19A2423008F44AE08E010F5D0F
:100A40001F4F842E912CB12CA12CA50194010E9442
:100A5000D611E62FB901CA01EA30F4F4E05DD801FD
:100A6000EE938D01232B242B252B79F790E080E04A
:100A7000109719F0CD010E94FD04A1960FB6F894CD
:100A8000DEBF0FBECDBFDF91CF911F910F91BF9001
:100A9000AF909F908F900895E95CE1CFCF92DF9265
:100AA000EF92FF92CF93DF936B017C016DE287EAB7
:100AB00096E00E94DC01EC0166277727CB016C19D8
:100AC0007D098E099F094AE00E940A058C0F9D1F2F
:100AD000DF91CF91FF90EF90DF90CF9008950C942D
:100AE000FD04CF93DF930E94FD04EC018DEB91E0B8
:100AF0000E94FD048C0F9D1FDF91CF910895CF932D
:100B0000DF930E942902EC018DEB91E00E94FD042D
:100B10008C0F9D1FDF91CF9108951F93CF93DF938B
:100B200083E280939303809108038F5F8830A9F05C
:100B30008093080310910803C12FD0E0183040F5CE
:100B4000FE01EB55FA4F0C946014B005B605BC05D8
:100B5000F405FE0500060206040610920803EACF1B
:100B600060E085E00E948D0261E00BC060E085E0FE
:100B70000E948D0260E03DC060E085E00E948D0231
:100B800060E086E00E948D0260E087E00E948D02B6
:100B900080E10E94EC02FE01EE0FFF1FE850FD4FC6
:100BA0002081318191838083821B930B97FF03C047
:100BB000919581959109C355DC4F8135910534F1AB
:100BC00081E0888388E690E00E942902612F70E02E
:100BD00090E080E04AE00E940A0580EC91E0DF911D
:100BE000CF911F910C94710560E085E00E948D0209
:100BF00061E086E00E948D0261E0C7CF61E0BDCF79
:100C000061E0AFCF61E0F1CF61E0B1CF1882DF9159
:100C1000CF911F910895CF93DF93682F70E090E0FC
:100C200080E04AE00E940A05EC018DEB91E00E9411
:100C3000FD048C0F9D1FDF91CF9108958F929F929D
:100C4000AF92BF92CF92DF92EF92FF92CF936B0160
:100C50007C0120E030E040E85FE30E94741287FDF1
:100C6000A8C020E030EC4AE555E4C701B6010E9477
:100C7000CC1318163CF4C12C30ECD32E3AE5E32EFD
:100C800035E4F32E60915307709154078091550716
:100C9000909156070E941A134B015C0120E030E04E
:100CA00040E855E4C701B6010E94D1139B01AC0195
:100CB000C501B4010E94791220E030E040E05FE31A
:100CC0000E94081220E030E040E85FE30E94071233
:100CD0006B017C0120E030E040E450E40E9474129B
:100CE00087FD6EC020E030E04FE753E4C701B60156
:100CF0000E94CC13181634F4C12CD12C9FE7E92E96
:100D000093E4F92E8091510790915207209150075A
:100D100031E030935F0620935E0610925D061092DC
:100D20005C06DC01ED91FC910190F081E02D60E02A
:100D3000099580915107909152070E942A0461E021
:100D4000809150070E94F80010925B0680935A062B
:100D50008091510790915207DC01ED91FC91028442
:100D6000F385E02D0995C82F682F6F76606180E0CC
:100D70000E948704C701B6010E94EB128EEF0E9409
:100D800087046C2F80E00E94870465E070E080E0BB
:100D900090E00E9423036C2F606A80E0CF91FF9067
:100DA000EF90DF90CF90BF90AF909F908F900C947A
:100DB0008704C12CD12C20E8E22E2FE3F22E62CF43
:100DC000C12CD12C80E4E82EFE2C9CCFFF920F93F7
:100DD0001F93CF93DF93C82FD62F84E680935906B5
:100DE000CC2321F0C150C93008F084C00C2F10E092
:100DF000F801EE0FFF1FE00FF11FEC56FC4FD283FE
:100E0000DD2309F472C0F1802F2D30E0A2E7B1E0BC
:100E10000E94F81124EB30E040E050E00E94AC1159
:100E2000CA01B90168587F4F8F4F9F4F8C2F0E9486
:100E3000BD0489E790E00E942902B8016F5F7F4FEF
:100E4000072E000C880B990B4AE00E940A0580E7E8
:100E500090E00E9429028F2D0E940B0602E1C8300B
:100E600009F403E1FF24F394F0925F0680E280939B
:100E70005E0610925D0610925C06602F84E497E097
:100E80000E94FB0384E497E00E942A0461E080E270
:100E90000E94F80010925B0680935A0684E497E063
:100EA0000E94B403182FF0925F0610925D06109214
:100EB0005C06602F84E497E00E94FB03C77061E04A
:100EC00070E001C0660FCA95EAF7DD2381F0612B5F
:100ED00084E497E00E94FB0384E497E0DF91CF91E4
:100EE0001F910F91FF900C942A04F0808DCF609594
:100EF0006123EECFDF91CF911F910F91FF90089565
:100F00001F920F920FB60F9211242F933F934F937E
:100F10005F936F937F938F939F93AF93BF93EF9361
:100F2000FF9387EA96E00E94BA01FF91EF91BF918B
:100F3000AF919F918F917F916F915F914F913F9171
:100F40002F910F900FBE0F901F9018951F920F9228
:100F50000FB60F9211242F938F939F93EF93FF93CC
:100F6000E091B706F091B8068081E091BD06F0915E
:100F7000BE0682FD1BC090818091C0068F5F8F737B
:100F80002091C106821741F0E091C006F0E0E955DA
:100F9000F94F958F8093C006FF91EF919F918F91AC
:100FA0002F910F900FBE0F901F9018958081F4CF56
:100FB0001F920F920FB60F9211242F933F938F938E
:100FC0009F93AF93BF938091720390917303A0910D
:100FD0007403B09175033091710323E0230F2D3713
:100FE00058F50196A11DB11D2093710380937203E2
:100FF00090937303A0937403B09375038091760369
:1010000090917703A0917803B09179030196A11D87
:10101000B11D8093760390937703A0937803B093E8
:101020007903BF91AF919F918F913F912F910F9035
:101030000FBE0F901F90189526E8230F0296A11D52
:10104000B11DD2CF1F920F920FB60F9211242F9382
:101050003F934F935F936F937F938F939F93AF9340
:10106000BF93EF93FF938091B900887F803609F496
:101070004AC0F0F5883209F4A7C018F5803109F4A8
:101080009BC0B8F4882309F4F9C0883009F494C0EF
:10109000FF91EF91BF91AF919F918F917F916F9150
:1010A0005F914F913F912F910F900FBE0F901F9026
:1010B0001895883109F488C0803251F78093A406CE
:1010C00014C0803409F49DC040F48033B9F38833F0
:1010D000F9F68093A40685ECB0C0803509F485C08C
:1010E000883509F496C0883499F60E945503D0CF0C
:1010F000883909F48CC038F5883729F050F48836DF
:1011000011F0803729F683E08093A60610927003D1
:1011100057C0883809F47BC0803919F0803809F04D
:10112000B7CF80917003803208F071C0E0917003F6
:1011300081E08E0F809370038091BB00F0E0E05B54
:10114000FC4F80833DC0803B39F0E0F4803A09F4E5
:1011500079C0883A09F09CCF84E08093A60610926B
:101160004F0310924E03E0918603F0918703099597
:1011700080914E0381110FC081E080934E03109245
:101180002E0309C0803C09F4A6CF883C09F4A3CF04
:10119000883B09F07DCFE0914F0381E08E0F809373
:1011A0004F03F0E0E25DFC4F80818093BB009091A3
:1011B0004F0380914E0329C08091A1068093BB000C
:1011C00085EC8093BC0064CF9091A3068091A20629
:1011D000981758F5E091A30681E08E0F8093A3063F
:1011E000F0E0E058F94F8081E9CFE091A30681E07B
:1011F0008E0F8093A3068091BB00F0E0E058F94F7A
:1012000080839091A3068091A2069817C8F285E882
:10121000D8CFE091A30681E08E0F8093A306809142
:10122000BB00F0E0E058F94F80838091A506811162
:101230005CCF81E08093A00684EA8093BC0010928A
:10124000A60626CF85EC8093BC001092A60680915E
:101250007003803230F4E0917003F0E0E05BFC4F0B
:1012600010826091700370E0E0918803F09189032F
:1012700080E593E00995109270030ACF1092A406BE
:1012800034CF1F920F920FB60F9211242F933F93DA
:101290004F935F938F939F93EF93FF938BB198E15D
:1012A00089278BB990910D0381E0892780930D03E5
:1012B000913041F1E0918403F09185038091000128
:1012C000908198234FE953E011F44FE357E0509396
:1012D000890040938800803411F59091AF0491FB10
:1012E000222720F930E043E0220F331F4A95E1F72F
:1012F0002A543B4FE217F30791F480916F008B7FE4
:1013000080936F00FF91EF919F918F915F914F912B
:101310003F912F910F900FBE0F901F90189590E066
:1013200095958795009719F080930001EBCF80E8A1
:10133000809300013196F0938503E0938403E2CF1C
:101340001F920F920FB60F9211248F939F9380914B
:101350000C038F5F80930C0390919203992329F0E3
:1013600090919203915090939203909193039923BB
:1013700029F0909193039150909393038A3009F050
:101380004AC010920C0380910B038F5F80930B0374
:1013900090910A03992329F090910A039150909318
:1013A0000A0390918F03992329F090918F03915014
:1013B00090938F0390915406992329F090915406AD
:1013C00091509093540690915906992329F0909149
:1013D00059069150909359068A30E9F410920B0304
:1013E000809109038F5F8093090390919003992363
:1013F00029F090919003915090939003909157060B
:10140000992329F0909157069150909357068A306E
:1014100011F4109209039F918F910F900FBE0F90BE
:101420001F901895E7EAF6E01382128288EE93E0A7
:10143000A0E0B0E084839583A683B7832DE931E0F3
:101440003183208325EC30E03587248724EC30E09D
:101450003787268720EC30E0318B208B21EC30E081
:10146000338B228B22EC30E0358B248B26EC30E062
:10147000378B268B118E128E138E148EE4E4F7E0D8
:101480001382128284839583A683B7838FEA91E0C7
:1014900091838083A0E5B7E080E48C931296FC935F
:1014A000EE93119784E080935A070895CF93DF93CA
:1014B000CDB7DEB729970FB6F894DEBF0FBECDBF0C
:1014C000789484B5826084BD84B5816084BD85B51F
:1014D000826085BD85B5816085BD80916E0081602B
:1014E00080936E00109281008091810082608093D1
:1014F00081008091810081608093810080918000D3
:101500008160809380008091B10084608093B100FD
:101510008091B00081608093B00080917A008460F7
:1015200080937A0080917A00826080937A00809123
:101530007A00816080937A0080917A00806880933D
:101540007A001092C100F8941092B1001092B2008B
:1015500089EF8093B3008091B00082608093B000E7
:101560008091B10081608093B1008091B100826070
:101570008093B1008091B1008B7F8093B100809106
:1015800070008260809370007894E091B706F091CB
:10159000B80682E08083E091B306F091B406108231
:1015A000E091B506F091B60680E180831092BF0607
:1015B000E091BB06F091BC0686E08083E091B9061D
:1015C000F091BA06808180618083E091B906F09144
:1015D000BA06808188608083E091B906F091BA06EE
:1015E000808180688083E091B906F091BA0680819D
:1015F0008F7D808310925B0610925A0610925D06D2
:1016000010925C060E9486038AE391E09093870320
:10161000809386038BE391E0909389038093880302
:1016200060E088E00E94BB0260E089E00E94BB02AB
:1016300061E088E00E94BB0261E084E00E94BB029E
:1016400061E082E00E94BB0261E083E00E94BB0295
:1016500061E08DE00E94BB0260E080E10E94BB027D
:1016600060E081E10E94BB0260E085E10E94BB0274
:1016700060E084E10E94BB0261E087E00E94BB025F
:1016800061E086E00E94BB0261E085E00E94BB024F
:1016900061E08DE00E94BB02EE24E394E0925F06DD
:1016A00000E2F02EF0925E0660E084E497E00E9493
:1016B000FB0370E060E084E497E00E94B60470E011
:1016C00060E084E497E00E94B60484E497E00E941E
:1016D0002A04E0925F06F0925E0610925D06109278
:1016E0005C066CE084E497E00E94FB0370E060E03D
:1016F00084E497E00E94B60470E060E084E497E040
:101700000E94B60484E497E00E942A0487EC91E0EA
:101710000E94710580E1C82E87E2D82E44244A94A5
:1017200093E0592E612C712CBBE32B2EB1E03B2EA4
:101730001FE9812E13E0912E8091550681117DC005
:101740008091900381115CC080915B0790915C0750
:10175000892B09F455C00E94FE0200917B03109171
:101760007C0320917D0330917E03780189019B01E8
:10177000AC012E193F09400B510B2E833F83488744
:101780005987409157075091580730E020E07A017F
:1017900089012E813F81488559852E153F054007D7
:1017A000510770F160937B0370937C0380937D03FA
:1017B00090937E0380917A0381110DC09091590717
:1017C000992349F0E0915B07F0915C0790812091AB
:1017D0005A07922B90839091590789130CC0843635
:1017E00050F4E0915B07F0915C07208190915A07DB
:1017F0009095922390838F5F8536E0F480937A03EF
:10180000809192018F5F80939201833009F40DC41F
:1018100008F077C1813009F4B9C308F495C280910A
:101820005906811182C28091930381117EC20E9468
:101830008D057BC210927A03E3CF20910201213003
:1018400009F47FC050F0223009F43BC1109202012C
:101850008EEC91E00E947105D3CF809181038823A3
:1018600079F0809180038F5F843131F08093800321
:1018700081E080930201C4CF109280031092810313
:10188000E091B4038091B3034091830350917F03AF
:10189000909101018E17B9F1AE2FB0E0AD54BC4F5D
:1018A00012968C918093830382E08E0F8093B40311
:1018B000EF5FF0E0ED54FC4F828180930101909145
:1018C000C00492509093C004833020F4813050F0D3
:1018D00082E009C0853050F08530D1F381E08093FB
:1018E0008103C6CF81E080930101F8CF83E0FBCF75
:1018F000842F58131FC09230C9F09330C9F0913033
:1019000009F492E040E081E0840F04E0809F9001C0
:1019100011242F533B4F843658F72C5F3F4FF9016A
:1019200031976081633028F38F5FF5CF93E0EACF82
:1019300091E0E8CF809383039093010180937F032C
:1019400097CF8091AF04982F9170292720FB80F9C1
:101950008093AF041091830330E080910101A901CD
:10196000A3E0440F551FAA95E1F7823009F47FC028
:10197000833009F497C08130D9F484E0189FB00116
:101980001124FB01EF53FB4FE08184EE8E0F909109
:10199000820387FF3CC08CE18E1B90E4909382030E
:1019A00086FF39C0907E9160FA01EC54FB4F908322
:1019B0004D545C4FFA01EF5FFE4F808181273497D1
:1019C00091E0908331969FEF908331969CEF9083C6
:1019D00063E0220F331F6A95E1F7F901ED54FB4FE5
:1019E000A12FAA0FA08390E0FA01EE5FFE4F9C01A9
:1019F0003595279520834D5F5E4F9695982F8827C4
:101A0000979587958064DA018C9382E032CF8823A2
:101A100029F290E6C3CFFB01EF53FB4FE381E130A6
:101A200069F487FD8F5F859559F08F5F982B6E5312
:101A30007B4FDB018C9180FD18C0B6CF811102C0B5
:101A4000907EB2CFE23009F0AFCFE82F082E000C25
:101A5000FF0BBF016D5F7F4F77FF02C06F5F7F4F4E
:101A600075956795962B80FD9FCF90619DCFB4E0D3
:101A70001B9FC0011124FC01EF53FB4F62816F706B
:101A8000762F70688E539B4FDC018C9180FF05C0D0
:101A90008381823011F4762F7069FA01EC54FB4F88
:101AA000708386CFDA01AC54BB4F04E0109FF00185
:101AB0001124EF53FB4F828182958F70806B8C9342
:101AC00077CF80916F0082FD9BCE9091AF04892FDC
:101AD000817080FB91F99093AF0490E023E0880F30
:101AE000991F2A95E1F780559B4F9093850380932A
:101AF000840380916F00846080936F0010920201D4
:101B00007FCE853009F4FBC308F458C38F3F09F03A
:101B100019C110925B0610925A0610925D0610923F
:101B20005C060E948603EAE3F1E0F0938703E0930A
:101B30008603309289032092880360E880E00E9447
:101B400087046AE070E080E090E00E94230360E098
:101B500070E08AE794E40E941E0610ECE12E1CEF70
:101B6000F12E0BE911E0E0925307F0925407009335
:101B700055071093560760E070E088E492E40E94F5
:101B80001E0696E4909394032EE62093950381E03D
:101B900080939603909397032093980380939903DF
:101BA00020939A0390939B0380939C0390939D03AF
:101BB00020939E0380939F039093A0032093A103FF
:101BC0008093A2032093A3039093A4038093A5037F
:101BD0002093A6039093A7038093A80310E061E3EA
:101BE00071E0812F0E94BD0461E0812F0E94E60612
:101BF00064EF71E080E090E00E9423031F5F1730E4
:101C000071F761E080915A070E94BB0280915A07E8
:101C100090E0FC01E351FF4F2491FC01EF5FFE4F88
:101C2000E491E0935A07E22FF0E0EE0FFF1FE05639
:101C3000FF4F8591949190935C0780935B07F89494
:101C4000809180008160809380008091800082601C
:101C500080938000809181008860809381008091D2
:101C600081008061809381008091800080628093F8
:101C7000800080918000806180938000809181004D
:101C80008B7F80938100809181008D7F8093810084
:101C90008091810081608093810090928900809280
:101CA00088007894E1ECF4E081E090E032E02CE10F
:101CB000378324831682DC01AA0FBB1FAA0FBB1F28
:101CC000AE53BB4F4C9141604C9301963496843691
:101CD000910571F7789408E010E0109293038091D9
:101CE0009303811102C00E948D0501501109A9F7CB
:101CF0001092AD031092AE031092AF031092B00396
:101D00001092B1031092B2031092B3031092B40375
:101D10008CE890E00E947F0568EE73E080E090E040
:101D20000E94230382E38093900380E090E0892B5C
:101D300009F402CD0E94A601882309F4F5CC0E9483
:101D40000000F2CC1092920180918F038111EDCFAF
:101D5000809104018130D1F58CE080938F0385E17F
:101D60000E94EC029C0140918D0350918E038417D8
:101D7000950708F4E9C2841B863060F580E090E0A6
:101D8000E09191012AE0E29FF0011124EB5FFE4F08
:101D90001381028190FBB0F880FBB1F8B0FE52C015
:101DA0008EEC90E00E947F058091AC03813021F49D
:101DB00060E0812F0E94E6068091AC0360E08230F3
:101DC00009F0B3CF802F0E94E606AFCF823039F6FC
:101DD00086E0C3CF30938E0320938D03C9018F55C6
:101DE00091408F389140D8F450E040E02E5531407A
:101DF00041095109ACE3B0E00E94CB1120E931E088
:101E000040E050E00E94AC1182EE820F63E00E943D
:101E10003E14982F990F890F80938C03AFCF253DE7
:101E200013E0310728F082E380938F0381E0A7CF8E
:101E30002C32310508F0A2CF82E380938F0380E03B
:101E400091E09ECFB1FE13C087EB90E00E947F052A
:101E50008091AC03813021F461E0812F0E94E6067D
:101E60008091AC03823009F060CF61E0ABCF9091FC
:101E70008C0380918B0389171CF48F5F80938B03F5
:101E800080918B0398171CF4815080938B031091E1
:101E90008B03E12E012E000CFF08F7FE03C0F19426
:101EA000E194F10880918A038E151F040CF047C05D
:101EB00081E0809304010E2DE0928A03809103015A
:101EC000181709F432CF1093030182E017FD03C005
:101ED000112319F081E08093AC03809155068111A4
:101EE0003AC017FF2EC060E082E00E948D0261E0E0
:101EF00083E00E948D022E2D053608F024E6209303
:101F000059070B3030F130E050E040E02A50310901
:101F100041095109A2E3B0E00E94CB112AE530E06B
:101F200040E050E00E94AC112E5C622F70E0C601D0
:101F30000E944C147093580760935707F6CE82E0C6
:101F4000B8CF1123C1F261E082E00E948D0260E00F
:101F5000CFCF22E3EACF8AEA90E00E942902212F24
:101F6000110F330B440B550B2C593F4F4F4F5F4F05
:101F7000A8E3B0E00E94CB1128EC30E040E050E054
:101F80000E94AC11822F0E940B06CFCEE9E1F1E056
:101F90008491E5E0F1E01491E1EFF0E00491002399
:101FA000A1F181110E946402E02FF0E0EE0FFF1F0B
:101FB000ED51FF4FA591B4918C91182331F180918F
:101FC0009203811122C082E08093920381E10E94FA
:101FD000EC028436910518F489E180939103809195
:101FE0009103882319F0815080939103809191038C
:101FF00081110BC060E084E00E948D028DE391E0CE
:102000000E947F0582E3809390038091900381304A
:1020100009F08BCE1092900361E084E00E948D0263
:1020200089E291E00E947F0580CE0091910110E04D
:102030008091AC03823009F06DC08AE0809FA001DE
:10204000819F500D11249A012B5F3E4F7901D901D8
:10205000EC91F0E0E355FC4F8081813009F05AC0EB
:1020600010821296AC90AA9482EF91E00E947105C2
:1020700080E092E00E946F058A2D0E940B06BFEF60
:10208000AB1669F08A2D90E09C01220F331F820F5E
:10209000931FFC01EC56FC4F828181110CC084E13E
:1020A00092E00E946F05F70186810E940B06D7011E
:1020B00016961C910DC0813069F584E192E00E9472
:1020C0006F05F70187810E940B06D70117961C91B7
:1020D000112309F42ACE83E292E00E947105109345
:1020E0009101BAE01B9FA00111248A010B5F1E4FD2
:1020F000F8018481682F661F6627661F8F770E940C
:10210000E606D80115968C91682F661F6627661F14
:102110008F7759CE8091AC03813009F006CE8AE0EA
:10212000809FA001819F500D1124FA01EB5FFE4FAB
:102130007F01E181F0E0E355FC4F8081813009F0BF
:10214000F4CD1082D70113961C91115082E591E0D5
:102150000E94290280E092E00E946F05812F0E9478
:102160000B061F3F81F0812F90E09C01220F331F4F
:10217000820F931FFC01EC56FC4F1281812F0E94AD
:102180000B0611110CC084E192E00E946F05F7016B
:1021900080850E940B06D70118961C9199CF1130AB
:1021A00009F0C3CD84E192E00E946F05F7018185BB
:1021B0000E940B06D70119961C918ACF8091540674
:1021C0008111B3CD89E18093540684E10E94EC0231
:1021D000BC0120915206309153068217930708F4F0
:1021E000B7C0821B7093530660935206813408F483
:1021F0009CCD90E080E0E2E0660F771F881F991F7A
:10220000EA95D1F7A30192010E94AC11222309F4AF
:1022100064C0122F243008F013E0212F2150330B1B
:10222000F901EE0FFF1FED56FE4FE080F180E092C6
:102230005106F701FF27EE0FFF1FEE0FFF1FEF53B1
:10224000FB4F8CE18083E091B303AE2FB0E0AD543F
:10225000BC4F1296EC9282E08E0F8093B303EF5F37
:10226000F0E0ED54FC4F12828091C0048E5F8093A9
:10227000C0048A3F18F187E392E00E94710588E864
:1022800092E00E9471058CEB92E00E94710560E083
:1022900088E00E948D0264E670E080E090E00E9499
:1022A000230361E08DE00E948D0264E670E080E02F
:1022B00090E00E94230360E08DE0EBCF88E791E09F
:1022C0000E9429028E2D0E940B061230A9F01330B5
:1022D00099F081E0809355060BC080916F008B7F51
:1022E00080936F0085E691E00E947F05109255066D
:1022F00081E08093580619CD10935506F9CF90913F
:102300005806992309F411CD9091570691110DCDDE
:102310008093570685B190E2892785B920915606AA
:102320002F5F209356068091550690E00196880F06
:10233000991F2817190609F00CF4F7CC10925806CB
:102340002D9810925606F1CC642F681B862F14CD61
:10235000922F981B892F46CF052E97FB1EF40094D1
:102360000E94C31157FD07D00E94D61107FC03D06D
:102370004EF40C94C31150954095309521953F4FE4
:102380004F4F5F4F089590958095709561957F4F61
:102390008F4F9F4F08950E94F811A59F900DB49FF5
:1023A000900DA49F800D911D11240895A1E21A2E75
:1023B000AA1BBB1BFD010DC0AA1FBB1FEE1FFF1FE9
:1023C000A217B307E407F50720F0A21BB30BE40B39
:1023D000F50B661F771F881F991F1A9469F7609580
:1023E0007095809590959B01AC01BD01CF0108953A
:1023F000A29FB001B39FC001A39F700D811D112446
:10240000911DB29F700D811D1124911D089550588A
:10241000BB27AA270E941F120C9492130E948413B8
:1024200038F00E948B1320F039F49F3F19F426F402
:102430000C9481130EF4E095E7FB0C947B13E92FC9
:102440000E94A31358F3BA1762077307840795070E
:1024500020F079F4A6F50C94C5130EF4E0950B2E3C
:10246000BA2FA02D0B01B90190010C01CA01A001E6
:102470001124FF27591B99F0593F50F4503E68F141
:102480001A16F040A22F232F342F4427585FF3CF82
:10249000469537952795A795F0405395C9F77EF453
:1024A0001F16BA0B620B730B840BBAF09150A1F09C
:1024B000FF0FBB1F661F771F881FC2F70EC0BA0F22
:1024C000621F731F841F48F4879577956795B795AA
:1024D000F7959E3F08F0B0CF9395880F08F09927A5
:1024E000EE0F9795879508950E94571308F481E0A1
:1024F00008950E948D120C9492130E948B1358F031
:102500000E94841340F029F45F3F29F00C947B1360
:1025100051110C94C6130C9481130E94A31368F3F9
:102520009923B1F3552391F3951B550BBB27AA278C
:1025300062177307840738F09F5F5F4F220F331FC6
:10254000441FAA1FA9F335D00E2E3AF0E0E832D08E
:1025500091505040E695001CCAF72BD0FE2F29D091
:10256000660F771F881FBB1F261737074807AB0763
:10257000B0E809F0BB0B802DBF01FF2793585F4FD8
:102580003AF09E3F510578F00C947B130C94C613DF
:102590005F3FE4F3983ED4F3869577956795B795BA
:1025A000F7959F5FC9F7880F911D9695879597F9C5
:1025B0000895E1E0660F771F881FBB1F621773073E
:1025C0008407BA0720F0621B730B840BBA0BEE1F53
:1025D00088F7E09508950E94AB1388F09F5798F014
:1025E000B92F9927B751B0F0E1F0660F771F881F18
:1025F000991F1AF0BA95C9F714C0B13091F00E9432
:10260000C513B1E008950C94C513672F782F882760
:10261000B85F39F0B93FCCF3869577956795B39558
:10262000D9F73EF490958095709561957F4F8F4FC7
:102630009F4F0895E89409C097FB3EF490958095CC
:10264000709561957F4F8F4F9F4F9923A9F0F92F78
:1026500096E9BB279395F695879577956795B795F6
:10266000F111F8CFFAF4BB0F11F460FF1BC06F5FDC
:102670007F4F8F4F9F4F16C0882311F096E911C0EE
:10268000772321F09EE8872F762F05C0662371F00F
:1026900096E8862F70E060E02AF09A95660F771F23
:1026A000881FDAF7880F9695879597F90895990FFF
:1026B0000008550FAA0BE0E8FEEF16161706E8070C
:1026C000F907C0F012161306E407F50798F0621B2D
:1026D000730B840B950B39F40A2661F0232B242B02
:1026E000252B21F408950A2609F4A140A6958FEF21
:1026F000811D811D089597F99F6780E870E060E073
:1027000008959FEF80EC089500240A94161617068A
:1027100018060906089500240A94121613061406D2
:1027200005060895092E0394000C11F4882352F035
:10273000BB0F40F4BF2B11F460FF04C06F5F7F4FED
:102740008F4F9F4F089557FD9058440F551F59F0D4
:102750005F3F71F04795880F97FB991F61F09F3F8E
:1027600079F087950895121613061406551FF2CFB7
:102770004695F1DF08C0161617061806991FF1CF07
:1027800086957105610508940895E894BB2766272E
:102790007727CB0197F908950E94571308F48FEF1C
:1027A00008950E94E4130C9492130E94841338F04D
:1027B0000E948B1320F0952311F00C947B130C9442
:1027C000811311240C94C6130E94A31370F3959FD8
:1027D000C1F3950F50E0551F629FF001729FBB2718
:1027E000F00DB11D639FAA27F00DB11DAA1F649FB4
:1027F0006627B00DA11D661F829F2227B00DA11D67
:10280000621F739FB00DA11D621F839FA00D611DEC
:10281000221F749F3327A00D611D231F849F600D0D
:10282000211D822F762F6A2F11249F5750409AF036
:10283000F1F088234AF0EE0FFF1FBB1F661F771FC2
:10284000881F91505040A9F79E3F510580F00C948D
:102850007B130C94C6135F3FE4F3983ED4F3869544
:1028600077956795B795F795E7959F5FC1F7FE2B2D
:10287000880F911D9695879597F9089587FB082EE7
:10288000062687FD819567FD61950E9466140EF40A
:10289000919507FC8195089597FB072E16F40094F7
:1028A00007D077FD09D00E94721407FC05D03EF4D2
:1028B000909581959F4F0895709561957F4F0895EC
:1028C000EE0FFF1F0590F491E02D0994991B79E01C
:1028D00004C0991F961708F0961B881F7A95C9F7B0
:1028E00080950895AA1BBB1B51E107C0AA1FBB1FFF
:1028F000A617B70710F0A61BB70B881F991F5A958C
:10290000A9F780959095BC01CD010895F894FFCF6B
:102910008001013201FFFFFFFFFFFFFFFFFFFFFF0D
:1029200001FF0201FFFFFF0405FF01FF0281FFFF1E
:10293000FF0405FF02FF05FFFFFFFF06070103017C
:102940000302FF01020809010401FF820401020AD7
:102950000A0204FFFF058403030A0A02FFFFFFFFC8
:10296000FF0303FFFF03FF01FFFFFF0404FFFF035B
:1029700006FFFF830704040B0B04050406FF87050D
:10298000060B0C06FF07FF06FF090AFFFF05FF0401
:10299000FF86FF0A0AFFFF000000000000000000A1
:1029A0000002FE03000400050000000000DC013C02
:1029B00001690144029A0178018C0100000000FBCA
:1029C00003CE03B304A403C703B403A5030D0A0095
:1029D0002074727565200068692062617300554E2D
:1029E0004B4E4F574E20535441544520454E54456D
:1029F0005245442C20435249544943414C204255AE
:102A000047007472616E736974696F6E696E6700F6
:102A100061646A6163656E74207475726E6F75743B
:102A2000203D20006E65772073656374696F6E20AA
:102A30003D20006E65772073656374696F6E206555
:102A40006E746572656400494E535452554354493F
:102A50004F4E2042554646455220484153204F563E
:102A60004552464C4F5745442C20594F55204D4F09
:102A700052524F4E2121212028646F6E277420620C
:102A800065206F6666656E65642C20697427732007
:102A900061206A6F6B652900434154415354524F82
:102AA000504849432053595354454D204641494CC1
:102AB0005552452C2050524F4752414D20484153CA
:102AC000205445524D494E4154454400796F75207C
:102AD00073656E7420746F6F206D616E79206279FA
:102AE00074657320696E746F20746865204649466A
:102AF0004F206275666665722C20636F7272656323
:082B0000742074686973000081
:00000001FF
